{
  "_format": "hh-sol-artifact-1",
  "contractName": "UniswapV3Quoter",
  "sourceName": "contracts/UniswapV3Quoter.sol",
  "abi": [
    {
      "inputs": [
        {
          "internalType": "address",
          "name": "_factory",
          "type": "address"
        }
      ],
      "stateMutability": "nonpayable",
      "type": "constructor"
    },
    {
      "inputs": [],
      "name": "factory",
      "outputs": [
        {
          "internalType": "address",
          "name": "",
          "type": "address"
        }
      ],
      "stateMutability": "view",
      "type": "function"
    },
    {
      "inputs": [
        {
          "internalType": "bytes",
          "name": "path",
          "type": "bytes"
        },
        {
          "internalType": "uint256",
          "name": "amountIn",
          "type": "uint256"
        }
      ],
      "name": "quote",
      "outputs": [
        {
          "internalType": "uint256",
          "name": "amountOut",
          "type": "uint256"
        },
        {
          "internalType": "uint160[]",
          "name": "sqrtPriceX96AfterList",
          "type": "uint160[]"
        },
        {
          "internalType": "int24[]",
          "name": "tickAfterList",
          "type": "int24[]"
        }
      ],
      "stateMutability": "nonpayable",
      "type": "function"
    },
    {
      "inputs": [
        {
          "components": [
            {
              "internalType": "address",
              "name": "tokenIn",
              "type": "address"
            },
            {
              "internalType": "address",
              "name": "tokenOut",
              "type": "address"
            },
            {
              "internalType": "uint24",
              "name": "tickSpacing",
              "type": "uint24"
            },
            {
              "internalType": "uint256",
              "name": "amountIn",
              "type": "uint256"
            },
            {
              "internalType": "uint160",
              "name": "sqrtPriceLimitX96",
              "type": "uint160"
            }
          ],
          "internalType": "struct UniswapV3Quoter.QuoteSingleParams",
          "name": "params",
          "type": "tuple"
        }
      ],
      "name": "quoteSingle",
      "outputs": [
        {
          "internalType": "uint256",
          "name": "amountOut",
          "type": "uint256"
        },
        {
          "internalType": "uint160",
          "name": "sqrtPriceX96After",
          "type": "uint160"
        },
        {
          "internalType": "int24",
          "name": "tickAfter",
          "type": "int24"
        }
      ],
      "stateMutability": "nonpayable",
      "type": "function"
    },
    {
      "inputs": [
        {
          "internalType": "int256",
          "name": "amount0Delta",
          "type": "int256"
        },
        {
          "internalType": "int256",
          "name": "amount1Delta",
          "type": "int256"
        },
        {
          "internalType": "bytes",
          "name": "data",
          "type": "bytes"
        }
      ],
      "name": "uniswapV3SwapCallback",
      "outputs": [],
      "stateMutability": "view",
      "type": "function"
    }
  ],
  "bytecode": "0x60a03461009d57601f6160ee388190039182017fffffffffffffffffffffffffffffffffffffffffffffffffffffffffffffffe01683019167ffffffffffffffff8311848410176100a25780849260209460405283398101031261009d575173ffffffffffffffffffffffffffffffffffffffff8116810361009d5760805260405161603590816100b982396080518181816105400152610e3a0152f35b600080fd5b634e487b7160e01b600052604160045260246000fdfe608060409080825260043610156200001657600080fd5b600090813560e01c92836333224ae11462000068575050508063402358a51462000062578063c45a0155146200005c5763fa461e33146200005657600080fd5b6200057c565b6200050a565b62000433565b34620002355780600319360112620002355760043567ffffffffffffffff8111620002315792620001ad92620000a7620000cf9536906004016200032b565b9160243591620000b7846200104a565b620000c28162000bfb565b90865198899283620002ac565b808252620000e0601f199162000bfb565b01936020943686840137620000ff620000f9876200104a565b62000c14565b95620001c1620001826200016787945b620001726200011e8662001202565b9194906200014b6200012f620002cf565b73ffffffffffffffffffffffffffffffffffffffff9097168752565b73ffffffffffffffffffffffffffffffffffffffff16858e0152565b62ffffff16838e0152565b606082015287878201526200098c565b919b9062000191868862000c4c565b73ffffffffffffffffffffffffffffffffffffffff9091169052565b620001b9848a62000c4c565b9060020b9052565b620001cd899262000c77565b9860428251101560001462000219575062000191620001ad8a9462000182898c96620001726200016762000205620001c1996200107d565b99509499505091939d96959450506200010f565b886200022d8986939251938493846200037d565b0390f35b8380fd5b8280fd5b634e487b7160e01b600052604160045260246000fd5b60a0810190811067ffffffffffffffff8211176200026c57604052565b62000239565b6040810190811067ffffffffffffffff8211176200026c57604052565b6060810190811067ffffffffffffffff8211176200026c57604052565b90601f8019910116810190811067ffffffffffffffff8211176200026c57604052565b60405190620002de826200024f565b565b90620002de6040519283620002ac565b67ffffffffffffffff81116200026c57601f017fffffffffffffffffffffffffffffffffffffffffffffffffffffffffffffffe01660200190565b81601f8201121562000378578035906200034582620002f0565b92620003556040519485620002ac565b828452602083830101116200037857816000926020809301838601378301015290565b600080fd5b919091606081019281526020926060848301528251809152836080830193019060005b818110620003e957505050604081830391015281808451928381520193019160005b828110620003d1575050505090565b835160020b85529381019392810192600101620003c2565b825173ffffffffffffffffffffffffffffffffffffffff1685529385019391850191600101620003a0565b73ffffffffffffffffffffffffffffffffffffffff8116036200037857565b34620003785760a0367ffffffffffffffffffffffffffffffffffffffffffffffffffffffffffffffffc0112620003785760405162000472816200024f565b600435620004808162000414565b8152602435620004908162000414565b602082015260443562ffffff81168103620003785781620004d59160406200022d9401526064356060820152608435620004ca8162000414565b60808201526200098c565b6040805193845273ffffffffffffffffffffffffffffffffffffffff909216602084015260020b908201529081906060820190565b3462000378576000367ffffffffffffffffffffffffffffffffffffffffffffffffffffffffffffffffc011262000378576040517f000000000000000000000000000000000000000000000000000000000000000073ffffffffffffffffffffffffffffffffffffffff168152602090f35b3462000378576060367ffffffffffffffffffffffffffffffffffffffffffffffffffffffffffffffffc0112620003785760443560043567ffffffffffffffff8211620003785762000605620005ec620005dc600494369086016200032b565b6020808251830101910162000cab565b73ffffffffffffffffffffffffffffffffffffffff1690565b906000811315620006df575060a06200062060243562000cc3565b915b6040517f3850c7bd00000000000000000000000000000000000000000000000000000000815293849182907fffffffffffffffffffffffffffffffffffffffffffffffffffffffffffffffff6001861b01165afa8015620006d95760609260009081926200069e575b5060405192835260208301526040820152fd5b9050620006c6915060a03d8111620006d1575b620006bd8183620002ac565b81019062000d01565b50505090386200068b565b503d620006b1565b6200090f565b620006ec60a09162000cc3565b9162000622565b60405190620007028262000272565b601382527f4f4b6965206c657427732073746172742e2e2e000000000000000000000000006020830152565b604051906200073d8262000272565b601582527f506f6f6c20416464726573732069732e2025732e2e00000000000000000000006020830152565b60405190620007788262000272565b601382527f207a65726f466f724f6e653f3f2025732e2e2e000000000000000000000000006020830152565b60405190620007b38262000272565b601082527f20416d6f756e74494e3f2025732e2e2e000000000000000000000000000000006020830152565b60405190620007ee8262000272565b601982527f207371727450726963654c696d69745839363f2025732e2e2e000000000000006020830152565b60405190620008298262000272565b601282527f53696d75746174696f6e20537761702e2e2e00000000000000000000000000006020830152565b634e487b7160e01b600052601160045260246000fd5b919082604091031262000378576020825192015190565b919082519283825260005b848110620008af575050826000602080949584010152601f8019910116010190565b6020818301810151848301820152016200088d565b73ffffffffffffffffffffffffffffffffffffffff9182168152911515602083015260408201929092529116606082015260a0608082018190526200090c9291019062000882565b90565b6040513d6000823e3d90fd5b3d156200094b573d906200092f82620002f0565b916200093f6040519384620002ac565b82523d6000602084013e565b606090565b51908160020b82036200037857565b9081606091031262000378578051916200090c60406020840151620009848162000414565b930162000950565b600090600090600090620009a9620009a3620006f3565b62000ecf565b805173ffffffffffffffffffffffffffffffffffffffff1660208201805190929073ffffffffffffffffffffffffffffffffffffffff169062000a05620005ec6040948594620009fe8686015162ffffff1690565b9162000d55565b62000a1a8162000a146200072e565b62000fae565b815162000a5790620005ec9073ffffffffffffffffffffffffffffffffffffffff16965173ffffffffffffffffffffffffffffffffffffffff1690565b73ffffffffffffffffffffffffffffffffffffffff958616109462000a868662000a8062000769565b62000f64565b62000b066080606085019462000aa7865162000aa1620007a4565b62000f1c565b01805190949062000adc9073ffffffffffffffffffffffffffffffffffffffff168462000ad3620007df565b91169062000f1c565b62000aea620009a36200081a565b51935173ffffffffffffffffffffffffffffffffffffffff1690565b90811662000bf45750841562000be8576401000276a45b915b835173ffffffffffffffffffffffffffffffffffffffff831660208083019190915281529560009062000b54604089620002ac565b62000b76865198899687958694631bab425b60e31b86523060048701620008c4565b03925af1918262000bb6575b505062000bb15750505062000baa62000b9a6200091b565b602080825183010191016200095f565b9192909190565b909192565b8162000bda92903d1062000be0575b62000bd18183620002ac565b8101906200086b565b62000b82565b503d62000bc5565b6401000276a262000b1d565b9162000b1f565b67ffffffffffffffff81116200026c5760051b60200190565b9062000c208262000bfb565b62000c2f6040519182620002ac565b828152809262000c42601f199162000bfb565b0190602036910137565b805182101562000c615760209160051b010190565b634e487b7160e01b600052603260045260246000fd5b7fffffffffffffffffffffffffffffffffffffffffffffffffffffffffffffffff811462000ca55760010190565b62000855565b908160209103126200037857516200090c8162000414565b7f8000000000000000000000000000000000000000000000000000000000000000811462000ca55760000390565b519061ffff821682036200037857565b908160a09103126200037857805162000d1a8162000414565b9162000d296020830162000950565b9162000d386040820162000cf1565b916200090c608062000d4d6060850162000cf1565b930162000cf1565b73ffffffffffffffffffffffffffffffffffffffff9290828416848216101562000ec85791925b808416908316101562000378576200090c92620005ec92620005ec926040519160208301936bffffffffffffffffffffffff19809260601b16855260601b16603483015262ffffff60e81b9060e81b166048820152602b815262000de0816200028f565b51902062000e9d62000eac614cfa62000dfc60208201620002e0565b81815260208101916200130683395190206040517fff00000000000000000000000000000000000000000000000000000000000000602082019081527f000000000000000000000000000000000000000000000000000000000000000060601b7fffffffffffffffffffffffffffffffffffffffff000000000000000000000000166021830152603582019590955260558101919091529182906075820190565b03601f198101835282620002ac565b51902073ffffffffffffffffffffffffffffffffffffffff1690565b9262000d7c565b62000e9d62000f01620002de9260405192839163104c13eb60e21b602084015260206024840152604483019062000882565b600080916020815191016a636f6e736f6c652e6c6f675afa50565b62000f0162000f4f91620002de93604051938492632d839cb360e21b602085015260406024850152606484019062000882565b90604483015203601f198101835282620002ac565b62000f0162000f9791620002de9360405193849263c3b5563560e01b602085015260406024850152606484019062000882565b901515604483015203601f198101835282620002ac565b62000f0162000fe191620002de9360405193849263319af33360e01b602085015260406024850152606484019062000882565b73ffffffffffffffffffffffffffffffffffffffff919091166044830152037fffffffffffffffffffffffffffffffffffffffffffffffffffffffffffffffe08101835282620002ac565b90601f820180921162000ca557565b601701908160171162000ca557565b517fffffffffffffffffffffffffffffffffffffffffffffffffffffffffffffffec810190811162000ca5576017900490565b805190620010988262001090816200102c565b101562001134565b620010b18151620010a9846200103b565b11156200119b565b81620010ca575050604051600081526020810160405290565b60405191601f8116916017831560051b80858701019484860193010101905b808410620011205750508252601f017fffffffffffffffffffffffffffffffffffffffffffffffffffffffffffffffe01660405290565b9092835181526020809101930190620010e9565b156200113c57565b6040517f08c379a000000000000000000000000000000000000000000000000000000000815260206004820152600e60248201527f736c6963655f6f766572666c6f770000000000000000000000000000000000006044820152606490fd5b15620011a357565b6040517f08c379a000000000000000000000000000000000000000000000000000000000815260206004820152601160248201527f736c6963655f6f75744f66426f756e64730000000000000000000000000000006044820152606490fd5b9060148251106200129257602082015160601c916017815110620012335762001230601782015191620012f1565b91565b6040517f08c379a000000000000000000000000000000000000000000000000000000000815260206004820152601460248201527f746f55696e7432345f6f75744f66426f756e64730000000000000000000000006044820152606490fd5b6040517f08c379a000000000000000000000000000000000000000000000000000000000815260206004820152601560248201527f746f416464726573735f6f75744f66426f756e647300000000000000000000006044820152606490fd5b602b81511062001292576037015160601c9056fe61012080604052346200021c577f8903573000000000000000000000000000000000000000000000000000000000815260a0908181600481335afa908115620002105760009081908290839084956200012b575b5061010094855260e052845260805260c05260405190614aa5928362000255843960805183818161175f015281816120ea015281816122490152818161237d015281816125dd01528181612bce01526133b401525182818161156801528181611a6001528181611f9f015281816122b2015281816123dc01528181612540015261346b015260c05182611af2015260e05182818161067a01528181610e7d015281816111bc015281816112bd015281816113b801528181611ab80152818161321a01526132540152518181816103a701526121c30152f35b9450505050823d841162000208575b601f81017fffffffffffffffffffffffffffffffffffffffffffffffffffffffffffffffe016830167ffffffffffffffff811184821017620001db578491849160405281010312620001d85750620001928162000221565b90620001a16020820162000221565b90620001b06040820162000221565b90620001cd6080620001c56060840162000243565b920162000243565b939291903862000053565b80fd5b7f4e487b710000000000000000000000000000000000000000000000000000000083526041600452602483fd5b503d6200013a565b6040513d6000823e3d90fd5b600080fd5b519073ffffffffffffffffffffffffffffffffffffffff821682036200021c57565b519062ffffff821682036200021c5756fe608080604052600436101561001357600080fd5b600090813560e01c9081630dfe168114612bba575080631a68650214612b86578063252c09d714612b1a57806332148f6714612a6a5780633850c7bd14612a175780633c8a7d8d146126c757806346141319146126a75780634a1823921461216c5780634f1eb3d814611db0578063514ea4bf14611d2f5780635339c29614611cd9578063a34123a714611b2e578063c45a015514611adc578063d0c93a7c14611a9c578063d21220a714611a4a578063dd5a12d8146103cb578063ddca3f431461038b578063f30583991461036b578063f30dba93146102dc5763f637731d146100fd57600080fd5b346102d9576020367ffffffffffffffffffffffffffffffffffffffffffffffffffffffffffffffffc01126102d957610134612c0a565b815473ffffffffffffffffffffffffffffffffffffffff9081166102ae5763ffffffff421660016040805161016881612d0c565b8381528660208201520152600154600160581b916affffffffffffff000000008660201b16916bffffffffffffffffffffffff1916171717600155600160806101b0846146c2565b92604051946101be86612d28565b16808552600284900b602086015260408501869052606085018390529301526000805460b885901b78ffff00000000000000000000000000000000000000000000001660a09390931b76ffffff0000000000000000000000000000000000000000167fffffffffff000000000000000000000000000000000000000000000000000000919091169093179290921717790100000000000000000000000000000000000000000000000000177fffffff0000ffffffffffffffffffffffffffffffffffffffffffffffffffffff167b0100000000000000000000000000000000000000000000000000000017905580f35b6040517f0dc149f0000000000000000000000000000000000000000000000000000000008152600490fd5b80fd5b50346102d9576020367ffffffffffffffffffffffffffffffffffffffffffffffffffffffffffffffffc01126102d957604060a091610319612c4d565b60020b815262010003602052208054906001810154600f0b9060036002820154910154916040519360ff81161515855260018060801b039060081c166020850152604084015260608301526080820152f35b50346102d957806003193601126102d95760206201000154604051908152f35b50346102d957806003193601126102d957602060405162ffffff7f0000000000000000000000000000000000000000000000000000000000000000168152f35b50346102d95760a0367ffffffffffffffffffffffffffffffffffffffffffffffffffffffffffffffffc01126102d957610403612c0a565b60243515156024350361170e5760643573ffffffffffffffffffffffffffffffffffffffff81169003611a455760843567ffffffffffffffff8111611a4157610450903690600401612c7c565b909161049460405161046181612d44565b601781527f20616d6f756e745370656369666965643f2025732e2e2e000000000000000000602082015260443590613543565b6104ec6040516104a381612d44565b601981527f207371727450726963654c696d69745839363f2025732e2e2e00000000000000602082015260643573ffffffffffffffffffffffffffffffffffffffff1690613543565b6104f4612de0565b62010000549093906fffffffffffffffffffffffffffffffff16602435156119e557845173ffffffffffffffffffffffffffffffffffffffff9081166064359091161180156119bf575b6119945761058060405161055181612d44565b601481527f2047657420494e207377617053746174652e2e2e00000000000000000000000060208201526134f4565b8451602086015173ffffffffffffffffffffffffffffffffffffffff909116959060243515611989576201000154905b604051976105bd89612cf0565b60443589528960208a0152604089015260020b606088015282608088015260a087015261061e6040516105ef81612d44565b601181527f205374617274696e67204c6f6f702e2e2e00000000000000000000000000000060208201526134f4565b855115158061195f575b156113ec5760405161063981612cf0565b8781528760208201528760408201528760608201528760808201528760a082015260018060a01b036040880151168152606087015160020b6106a362ffffff7f00000000000000000000000000000000000000000000000000000000000000001660020b82614034565b9089811290816113ad575b50611348575b60243515610ee2576106d68160020b9060ff6101008360081d60010b93071690565b9190600160ff84161b7fffffffffffffffffffffffffffffffffffffffffffffffffffffffffffffffff810111610eb55761075261073c600160ff86161b7fffffffffffffffffffffffffffffffffffffffffffffffffffffffffffffffff8101612dd3565b9160010b60005262010005602052604060002090565b5416918215610e6b57828b938015610e6757700100000000000000000000000000000000811015610e59575b5068010000000000000000811015610e3c575b640100000000811015610e1f575b62010000811015610e03575b610100811015610de7575b6010811015610dca575b6004811015610dad575b60021115610d91575b6107e26107ec9360ff92614125565b1660020b906132e0565b60020b602082015261085860405161080381612d0c565b602381527f4f6b69652c20646f6e652066696e64207469636b2077697468206c697175696460208201527f697479000000000000000000000000000000000000000000000000000000000060408201526134f4565b602081015173ffffffffffffffffffffffffffffffffffffffff9061087f9060020b614150565b16604082810182905288015173ffffffffffffffffffffffffffffffffffffffff169060243515610d715760643573ffffffffffffffffffffffffffffffffffffffff1681105b15610d6b5750606435905b60018060801b0360808a0151169189519160a08b0151928c93620f4240958682810311610d2d57908e959493929161090b828903846135d3565b73ffffffffffffffffffffffffffffffffffffffff86168510801590610d5a57610936838888613a34565b985b898310610cb357505050508590845b73ffffffffffffffffffffffffffffffffffffffff908116989086168914610c9d575050610974916132d3565b915b73ffffffffffffffffffffffffffffffffffffffff1611610c95575b60a0850152608084015260608301526040880152610a306040516109b581612caa565b605081527f4f6b69652c20646f6e652043616c63756c6174652074686520616d6f756e747360208201527f20746861742063616e2062652070726f7669646572206279207468652063757260408201527f72656e742070726963652072616e67650000000000000000000000000000000060608201526134f4565b610a3f606082015188516132d3565b8752610a5360808201516020890151612dd3565b602088015260808701516fffffffffffffffffffffffffffffffff1680610c6f575b506040878101519082015173ffffffffffffffffffffffffffffffffffffffff91821691168103610c3357506001602082015160020b602435600014610c285760a0890151905b60243515610c0a57610ae262010002549160020b60005262010003602052604060002090565b91610af360028401918254906132d3565b9055610b0560038301918254906132d3565b90550154600f0b602435610bfc575b60808801516fffffffffffffffffffffffffffffffff91610b369183166139c0565b1680608089015215610bd15760243515610bc5576020015160020b7fffffffffffffffffffffffffffffffffffffffffffffffffffffffffffffffff017fffffffffffffffffffffffffffffffffffffffffffffffffffffffffff8000008112627fffff821317610baf575b60020b606087015261061e565b634e487b7160e01b600052601160045260246000fd5b6020015160020b610ba2565b6040517f4323a555000000000000000000000000000000000000000000000000000000008152600490fd5b610c0590613281565b610b14565b610ae260a08b01519160020b60005262010003602052604060002090565b620100015490610abc565b905173ffffffffffffffffffffffffffffffffffffffff168103610c58575b5061061e565b610c61906146c2565b60020b606087015238610c52565b610c80610c8a9160a0840151613664565b60a0890151612dd3565b60a088015238610a75565b919091610992565b610cad935081925003908661398e565b91610976565b5091975091955015610ce957610cca908684613e6d565b8094610ce3610cda888487613a34565b97889386613ab0565b95610947565b73ffffffffffffffffffffffffffffffffffffffff90610d0d90879060601b613e63565b16820173ffffffffffffffffffffffffffffffffffffffff811115610cca575b7f4e487b71000000000000000000000000000000000000000000000000000000008f52601160045260248ffd5b610d65838888613ab0565b98610938565b906108d1565b60643573ffffffffffffffffffffffffffffffffffffffff1681116108c6565b60ff60018185160111610baf5760ff92909216600101916107d3565b60021c9260ff60028183160111610baf5760ff16600201926107ca565b60041c9260ff60048183160111610baf5760ff16600401926107c0565b600890811c9360ff828183160111610baf5760ff1601926107b6565b601090811c9360ff828183160111610baf5760ff1601926107ab565b60201c9260ff60208183160111610baf5760ff166020019261079f565b60401c9260ff60408183160111610baf5760ff1660400192610791565b60809450841c90503861077e565b8c80fd5b90610eb09250610eab9060ff62ffffff7f00000000000000000000000000000000000000000000000000000000000000001660020b931660020b906132e0565b614139565b6107ec565b7f4e487b71000000000000000000000000000000000000000000000000000000008b52601160045260248bfd5b610f04610eee826140d0565b60020b9060ff6101008360081d60010b93071690565b9190600160ff84161b8060001981011161131b57610f379060001901199160010b60005262010005602052604060002090565b5416918215918261129357610f4b906140d0565b92809261128f5760ff906fffffffffffffffffffffffffffffffff811615611285575050607f5b67ffffffffffffffff83161561127b5760ff8181167fffffffffffffffffffffffffffffffffffffffffffffffffffffffffffffffc00111610baf5760ff167fffffffffffffffffffffffffffffffffffffffffffffffffffffffffffffffc0015b63ffffffff8316156112715760ff8181167fffffffffffffffffffffffffffffffffffffffffffffffffffffffffffffffe00111610baf5760ff167fffffffffffffffffffffffffffffffffffffffffffffffffffffffffffffffe0015b61ffff8316156112675760ff8181167ffffffffffffffffffffffffffffffffffffffffffffffffffffffffffffffff00111610baf5760ff167ffffffffffffffffffffffffffffffffffffffffffffffffffffffffffffffff0015b60ff83161561125d5760ff8181167ffffffffffffffffffffffffffffffffffffffffffffffffffffffffffffffff80111610baf5760ff167ffffffffffffffffffffffffffffffffffffffffffffffffffffffffffffffff8015b600f8316156112535760ff8181167ffffffffffffffffffffffffffffffffffffffffffffffffffffffffffffffffc0111610baf5760ff167ffffffffffffffffffffffffffffffffffffffffffffffffffffffffffffffffc015b60038316156112475760ff8181167ffffffffffffffffffffffffffffffffffffffffffffffffffffffffffffffffe0111610baf5760ff167ffffffffffffffffffffffffffffffffffffffffffffffffffffffffffffffffe01916001905b166111ef575b610eb09260ff6111e5610eab9362ffffff7f00000000000000000000000000000000000000000000000000000000000000001660020b95614125565b1660020b90614107565b9060ff8082167fffffffffffffffffffffffffffffffffffffffffffffffffffffffffffffffff0111610baf5760ff167fffffffffffffffffffffffffffffffffffffffffffffffffffffffffffffffff01906111a9565b9160019060021c6111a3565b9160041c91611144565b9160081c916110e9565b9160101c9161108e565b9160201c91611032565b9160401c91610fd4565b60801c9250610f72565b8b80fd5b9092506112a091506140d0565b60ff8083168103116112ee5790610eab610eb09260ff8062ffffff7f00000000000000000000000000000000000000000000000000000000000000001660020b941681031660020b90614107565b7f4e487b71000000000000000000000000000000000000000000000000000000008a52601160045260248afd5b7f4e487b71000000000000000000000000000000000000000000000000000000008c52601160045260248cfd5b627fffff198160020b146113805760020b7fffffffffffffffffffffffffffffffffffffffffffffffffffffffffffffffff016106b4565b7f4e487b710000000000000000000000000000000000000000000000000000000089526011600452602489fd5b6113e1915062ffffff7f00000000000000000000000000000000000000000000000000000000000000001660020b90614022565b60020b1515386106ae565b61142a6040516113fb81612d44565b600d81527f20446f6e65204c6f6f702e2e2e0000000000000000000000000000000000000060208201526134f4565b606086015160020b602082015160020b8091036118e1575b5050604085810151905161149f9173ffffffffffffffffffffffffffffffffffffffff169061147081612d44565b601881527f2055706461746520537461746550726963652025732e2e2e00000000000000006020820152613543565b60808501516fffffffffffffffffffffffffffffffff16908190036118ad575b506024351561189e5760a084015162010001555b6024351561187e576114f560206114ed86516044356132d3565b950151613319565b925b6024351561174c57611563602061150d86613319565b6040517fa9059cbb00000000000000000000000000000000000000000000000000000000815273ffffffffffffffffffffffffffffffffffffffff87166004820152602481019190915291829081906044820190565b03818a7f000000000000000000000000000000000000000000000000000000000000000073ffffffffffffffffffffffffffffffffffffffff165af1801561174157611712575b50856115b4613380565b92333b1561170e576040517ffa461e33000000000000000000000000000000000000000000000000000000008152928291849182916115f991908a8c60048601612d82565b038183335af19182156117015786926116e6575b505061161891612dd3565b611620613380565b106116bb5760e07fc42079f94a6350d7e6235f29174924f928cc2ac818eb64fed8004e115fbcca67916040955b546201000054875133815273ffffffffffffffffffffffffffffffffffffffff93841660208201528089018890526060810187905292821660808401526fffffffffffffffffffffffffffffffff1660a0808401919091521c60020b60c0820152a182519182526020820152f35b6040517f098fb561000000000000000000000000000000000000000000000000000000008152600490fd5b6116f1919250612cdc565b6116fd5783853861160d565b8480fd5b50604051903d90823e3d90fd5b5080fd5b6117339060203d60201161173a575b61172b8183612d60565b810190613346565b50386115aa565b503d611721565b6040513d89823e3d90fd5b61175a602061150d87613319565b03818a7f000000000000000000000000000000000000000000000000000000000000000073ffffffffffffffffffffffffffffffffffffffff165af180156117415761185f575b50856117ab613437565b92333b1561170e576040517ffa461e33000000000000000000000000000000000000000000000000000000008152928291849182916117f091908a8c60048601612d82565b038183335af1918215611701578592611848575b505061180f91612dd3565b611817613437565b116116bb5760e07fc42079f94a6350d7e6235f29174924f928cc2ac818eb64fed8004e115fbcca679160409561164d565b611853919250612cdc565b6116fd57828538611804565b6118779060203d60201161173a5761172b8183612d60565b50386117a1565b61189861188e6020860151613319565b94516044356132d3565b926114f7565b60a084015162010002556114d3565b6201000080547fffffffffffffffffffffffffffffffff0000000000000000000000000000000016919091179055386114bf565b61190c9161ffff918260408301511692608081606085015116930151169263ffffffff421690613b48565b60018060a01b036040880151169160608801519189549061ffff60c81b9060c81b169064ffffffffff60d81b16179061ffff60b81b9060b81b16179062ffffff60a01b9060a01b16171786553880611442565b50604086015160643573ffffffffffffffffffffffffffffffffffffffff90811691161415610628565b6201000254906105b0565b6040517fb53bbacc000000000000000000000000000000000000000000000000000000008152600490fd5b506401000276a360643573ffffffffffffffffffffffffffffffffffffffff161061053e565b845173ffffffffffffffffffffffffffffffffffffffff90811660643590911610801561053e575073fffd8963efd1fc6a506488495d951d5263988d2660643573ffffffffffffffffffffffffffffffffffffffff161161053e565b8280fd5b600080fd5b50346102d957806003193601126102d9576040517f000000000000000000000000000000000000000000000000000000000000000073ffffffffffffffffffffffffffffffffffffffff168152602090f35b50346102d957806003193601126102d957602060405162ffffff7f0000000000000000000000000000000000000000000000000000000000000000168152f35b50346102d957806003193601126102d9576040517f000000000000000000000000000000000000000000000000000000000000000073ffffffffffffffffffffffffffffffffffffffff168152602090f35b50346102d9576060367ffffffffffffffffffffffffffffffffffffffffffffffffffffffffffffffffc01126102d957611b66612c4d565b611b6e612c2d565b6fffffffffffffffffffffffffffffffff60443581811693919290849003611a455760c07f0c396cd989a39f4459b5fa1aed6a9a8dcdbc45908acfd67e028cd568da98982c9185611bf6611bc6604098600f0b613281565b95885190611bd382612caa565b33825260020b9384602083015260020b96878a830152600f0b6060820152612e2d565b969181989115801590611cd0575b611c38575b505087519233845260208401528783015260608201528460808201528360a0820152a182519182526020820152f35b600301908154611ca0611c5f611c52848d168585166132b1565b92848c169060801c6132b1565b84546fffffffffffffffffffffffffffffffff1660809190911b7fffffffffffffffffffffffffffffffff0000000000000000000000000000000016178455565b82547fffffffffffffffffffffffffffffffff000000000000000000000000000000001691161790558880611c09565b50871515611c04565b50346102d9576020367ffffffffffffffffffffffffffffffffffffffffffffffffffffffffffffffffc01126102d9576004358060010b80910361170e5781604091602093526201000583522054604051908152f35b50346102d9576020367ffffffffffffffffffffffffffffffffffffffffffffffffffffffffffffffffc01126102d957604060a0916004358152620100046020522060018060801b039081815416916001820154916003600282015491015492604051948552602085015260408401528116606083015260801c6080820152f35b50346102d95760a0367ffffffffffffffffffffffffffffffffffffffffffffffffffffffffffffffffc01126102d957611de8612c0a565b90611df1612c2d565b611df9612c3d565b611e01612c5d565b6fffffffffffffffffffffffffffffffff6084358181169592949291868203611a4557806003611e32878733613e12565b0196875498828a16918284821611600014612166575081945b8a60801c80921160001461215e5750935b828116998a612044575b5050505081169485611ed9575b5050506040947fa89c1c8a741251492622c95237828c75d1dbb03ea956f09e3792ff2a14f4fe629260c09287519233845260018060a01b0316602084015260020b8783015260020b60608201528460808201528360a0820152a182519182526020820152f35b81611f3382611ef2611f9a96956020955460801c61335e565b81546fffffffffffffffffffffffffffffffff1660809190911b7fffffffffffffffffffffffffffffffff0000000000000000000000000000000016179055565b6040517fa9059cbb00000000000000000000000000000000000000000000000000000000815273ffffffffffffffffffffffffffffffffffffffff8a1660048201526fffffffffffffffffffffffffffffffff909116602482015292839081906044820190565b0381847f000000000000000000000000000000000000000000000000000000000000000073ffffffffffffffffffffffffffffffffffffffff165af190811561203857509260c092604097927fa89c1c8a741251492622c95237828c75d1dbb03ea956f09e3792ff2a14f4fe629561201a575b5092829750819450611e73565b6120319060203d811161173a5761172b8183612d60565b503861200d565b604051903d90823e3d90fd5b6120e5936120548360209561335e565b7fffffffffffffffffffffffffffffffff0000000000000000000000000000000090921691161789556040517fa9059cbb00000000000000000000000000000000000000000000000000000000815273ffffffffffffffffffffffffffffffffffffffff8c1660048201526fffffffffffffffffffffffffffffffff91909116602482015291829081906044820190565b0381877f000000000000000000000000000000000000000000000000000000000000000073ffffffffffffffffffffffffffffffffffffffff165af1801561215357612135575b80808392611e66565b61214c9060203d811161173a5761172b8183612d60565b503861212c565b6040513d86823e3d90fd5b905093611e5c565b94611e4b565b50346102d9576060367ffffffffffffffffffffffffffffffffffffffffffffffffffffffffffffffffc01126102d95760443567ffffffffffffffff811161170e576121bc903690600401612c7c565b9062ffffff7f0000000000000000000000000000000000000000000000000000000000000000166121fb6121f282600435613943565b91602435613943565b6040517f70a0823100000000000000000000000000000000000000000000000000000000815230600482015273ffffffffffffffffffffffffffffffffffffffff93919290916020836024817f000000000000000000000000000000000000000000000000000000000000000089165afa92831561174157879361266f575b506040517f70a082310000000000000000000000000000000000000000000000000000000081523060048201529587906020886024817f00000000000000000000000000000000000000000000000000000000000000008b165afa978815612664578298612630575b5060043561259e575b602435612503575b333b1561170e576040517fe9cbafb000000000000000000000000000000000000000000000000000000000815292839182916123369190898860048601612d82565b038183335af18015611741576124f0575b506040517f70a08231000000000000000000000000000000000000000000000000000000008152306004820152906020826024817f000000000000000000000000000000000000000000000000000000000000000089165afa9182156117415787926124ba575b506123b99192612dd3565b11612459576020602492604051938480926370a0823160e01b82523060048301527f0000000000000000000000000000000000000000000000000000000000000000165afa918215612153578492612484575b506124179192612dd3565b11612459577f1c1db1f1d6a01e51fec24bb54087b65fe5430f692280e70d92f718eb72ae76b7606060405133815260043560208201526024356040820152a180f35b6040517f7bc35e05000000000000000000000000000000000000000000000000000000008152600490fd5b91506020823d6020116124b2575b8161249f60209383612d60565b81010312611a455761241791519161240c565b3d9150612492565b91506020823d6020116124e8575b816124d560209383612d60565b81010312611a45576123b99151916123ae565b3d91506124c8565b6124fc90969196612cdc565b9438612347565b6040517fa9059cbb0000000000000000000000000000000000000000000000000000000081523360048201526024803590820152602081604481867f00000000000000000000000000000000000000000000000000000000000000008d165af1801561259357612574575b506122f4565b61258c9060203d60201161173a5761172b8183612d60565b503861256e565b6040513d85823e3d90fd5b6040517fa9059cbb00000000000000000000000000000000000000000000000000000000815233600480830191909152356024820152602081604481867f00000000000000000000000000000000000000000000000000000000000000008d165af1801561259357612611575b506122ec565b6126299060203d60201161173a5761172b8183612d60565b503861260b565b9097506020813d60201161265c575b8161264c60209383612d60565b8101031261170e575196386122e3565b3d915061263f565b6040513d84823e3d90fd5b9092506020813d60201161269f575b8161268b60209383612d60565b8101031261269b5751913861227a565b8680fd5b3d915061267e565b50346102d957806003193601126102d95760206201000254604051908152f35b50346102d95760a0367ffffffffffffffffffffffffffffffffffffffffffffffffffffffffffffffffc01126102d9576126ff612c0a565b90612708612c2d565b91612711612c3d565b9061271a612c5d565b9360843567ffffffffffffffff81116116fd5761273b903690600401612c7c565b91909360020b9060020b958187128015906129ee575b80156129e2575b6129b7576fffffffffffffffffffffffffffffffff1691821561298c576127bc6040519461278586612caa565b73ffffffffffffffffffffffffffffffffffffffff168086526020860189905260408601849052600f85900b606087015294612e2d565b9691509661282687896040516127d181612d0c565b602d81527f5472616e7366657220746f6b656e2066726f6d206f776e657220746f2074686560208201527f20706f6f6c2020257320202573000000000000000000000000000000000000006040820152613588565b808192891515928361297c575b891515958661296c575b333b1561170e578a8c6128668493604051968794859463d348799760e01b865260048601612d82565b038183335af19081156120385750908a929161295d575b506128be898360405161288f81612d44565b601b81527f546865206f7570757420616d6f756e74206973202025732020257300000000006020820152613588565b82612943575b50506116bb57859082612929575b50506116bb5760a0849386937f7a53080ba414158be7ec69b987b5fb7d07dee101fe85488f0853ae16239d0bde936040998a519333855260208501528a84015260608301526080820152a382519182526020820152f35b6129339250612dd3565b61293b613437565b1084386128d2565b61294d9250612dd3565b612955613380565b1087386128c4565b61296690612cdc565b3861287d565b9450612976613437565b9461283d565b9150612986613380565b91612833565b6040517f10074548000000000000000000000000000000000000000000000000000000008152600490fd5b6040517f064847d0000000000000000000000000000000000000000000000000000000008152600490fd5b50620d89e88213612758565b507ffffffffffffffffffffffffffffffffffffffffffffffffffffffffffff276188712612751565b50346102d957806003193601126102d95760a0905460405190600180841b038116825280831c60020b602083015261ffff90818160b81c166040840152818160c81c16606084015260d81c166080820152f35b50346102d9576020367ffffffffffffffffffffffffffffffffffffffffffffffffffffffffffffffffc01126102d95760043561ffff8082168203611a4157612aba81845460d81c169283613d78565b90811691808303612ac9578380f35b7fac49e518f90a358f652e4400164f05a5d8f7e35e7747279bc3a93dbf584e125a9260409285549061ffff60d81b9060d81b169061ffff60d81b191617855582519182526020820152a13880808380f35b50346102d9576020367ffffffffffffffffffffffffffffffffffffffffffffffffffffffffffffffffc01126102d95760043561ffff81101561170e576060906001015460ff6040519163ffffffff811683528060201c60060b602084015260581c1615156040820152f35b50346102d957806003193601126102d95762010000546040516fffffffffffffffffffffffffffffffff9091168152602090f35b90503461170e578160031936011261170e577f000000000000000000000000000000000000000000000000000000000000000073ffffffffffffffffffffffffffffffffffffffff168152602090f35b6004359073ffffffffffffffffffffffffffffffffffffffff82168203611a4557565b602435908160020b8203611a4557565b604435908160020b8203611a4557565b600435908160020b8203611a4557565b606435906fffffffffffffffffffffffffffffffff82168203611a4557565b9181601f84011215611a455782359167ffffffffffffffff8311611a455760208381860195010111611a4557565b6080810190811067ffffffffffffffff821117612cc657604052565b634e487b7160e01b600052604160045260246000fd5b67ffffffffffffffff8111612cc657604052565b60c0810190811067ffffffffffffffff821117612cc657604052565b6060810190811067ffffffffffffffff821117612cc657604052565b60a0810190811067ffffffffffffffff821117612cc657604052565b6040810190811067ffffffffffffffff821117612cc657604052565b90601f8019910116810190811067ffffffffffffffff821117612cc657604052565b928492608095928552602085015260606040850152816060850152848401376000828201840152601f017fffffffffffffffffffffffffffffffffffffffffffffffffffffffffffffffe016010190565b91908201809211610baf57565b60405190612ded82612d28565b81608060005460018060a01b03811683528060a01c60020b602084015261ffff90818160b81c166040850152818160c81c16606085015260d81c16910152565b600091600080612e3b612de0565b9362010001549162010002549660018060a01b038781855116926020860190815197612e7660408901998a5197600298890b91890b90613e12565b9c612e998183602087518b0b980197606089518c0b9d019c8d51600f0b91613f19565b612eb282848d518b0b8d8a518d0b9051600f0b91613f19565b90613247575b61320d575b612efb604051612ecc81612d44565b601281527f506f736974696f6e207570646174652e2e2e000000000000000000000000000060208201526134f4565b8351870b8a51880b8651890b99612f218360020b60005262010003602052604060002090565b91612f3b8160020b60005262010003602052604060002090565b938c126131c25760038b8401549301549b5b12156131455750612f679060038a840154930154946132d3565b90612f71916132d3565b97612f7b916132d3565b90612f85916132d3565b928751600f0b8d60018101908154612f9d908b6132d3565b81546fffffffffffffffffffffffffffffffff9b9098918c8a1691908d90612fc6908490613719565b16948d8d86019381818654612fdb90896132d3565b90612fe591613719565b1698612ff0916139c0565b167fffffffffffffffffffffffffffffffff000000000000000000000000000000009b8c161785555555811580159061313c575b613109575b50505051850b8251860b90818112600014613065575050505050906130599161306296979851169451900b614150565b91511691613a34565b91565b909192969880949b9a5051860b136000146130d957505091816130a36130b995946130996130af958d51169151850b614150565b88518a1691613a34565b9951169251900b614150565b8351851691613ab0565b9362010000926130d184549351600f0b8285166139c0565b169116179055565b9099506131069798506130f4919694506130fd939250614150565b9451900b614150565b91511691613ab0565b90565b613134926003611ef2920192888c6131258654938285166132b1565b1691161780845560801c6132b1565b38808e613029565b50821515613024565b89830154806131955760039082039301549081613168570393612f6791906132d3565b7f4e487b710000000000000000000000000000000000000000000000000000000081526011600452602490fd5b7f4e487b710000000000000000000000000000000000000000000000000000000082526011600452602482fd5b8a830154806131e0576003908303930154806131e05782039b612f4d565b7f4e487b710000000000000000000000000000000000000000000000000000000083526011600452602483fd5b6132428a51880b62ffffff7f000000000000000000000000000000000000000000000000000000000000000016890b90614091565b612ebd565b61327c8551890b62ffffff7f0000000000000000000000000000000000000000000000000000000000000000168a0b90614091565b612eb8565b600f0b7fffffffffffffffffffffffffffffffff800000000000000000000000000000008114610baf5760000390565b6fffffffffffffffffffffffffffffffff9182169082160191908211610baf57565b91908203918211610baf57565b600291820b910b03907fffffffffffffffffffffffffffffffffffffffffffffffffffffffffff8000008212627fffff831317610baf57565b7f80000000000000000000000000000000000000000000000000000000000000008114610baf5760000390565b90816020910312611a4557518015158103611a455790565b6fffffffffffffffffffffffffffffffff9182169082160391908211610baf57565b6040517f70a082310000000000000000000000000000000000000000000000000000000081523060048201526020816024817f000000000000000000000000000000000000000000000000000000000000000073ffffffffffffffffffffffffffffffffffffffff165afa90811561342b576000916133fd575090565b906020823d8211613423575b8161341660209383612d60565b810103126102d957505190565b3d9150613409565b6040513d6000823e3d90fd5b6040517f70a082310000000000000000000000000000000000000000000000000000000081523060048201526020816024817f000000000000000000000000000000000000000000000000000000000000000073ffffffffffffffffffffffffffffffffffffffff165afa90811561342b576000916133fd575090565b919082519283825260005b8481106134e0575050826000602080949584010152601f8019910116010190565b6020818301810151848301820152016134bf565b6000809160405161353081613522602082019463104c13eb60e21b86526020602484015260448301906134b4565b03601f198101835282612d60565b51906a636f6e736f6c652e6c6f675afa50565b60009190829161353060405180926135746020830195632d839cb360e21b87526040602485015260648401906134b4565b90604483015203601f198101835282612d60565b6000929161353084936040519283916135ba602084019663ca47c4eb60e01b88526060602486015260848501906134b4565b916044840152606483015203601f198101835282612d60565b9091907fffffffffffffffffffffffffffffffffffffffffffffffffffffffffffffffff8382098382029182808310920394828603926000961461365657620f4240918383111561269b577fde8f6cefed634549b62c77574f722e1ac57e23f24d8fd5cb790fb65668c261399596500990828211900360fa1b910360061c170290565b505050620f42409192500490565b90700100000000000000000000000000000000907fffffffffffffffffffffffffffffffffffffffffffffffffffffffffffffffff828409928060801b9283808610950394808603951461370b5784831115611a455782910981806000031680920460028082600302188083028203028083028203028083028203028083028203028083028203028092029003029360018380600003040190848311900302920304170290565b505080925015611a45570490565b7fffffffffffffffffffffffffffffffffffffffffffffffffffffffffffffffff82820990828102928380841093039183830393600093146137845770010000000000000000000000000000000092848411156102d957500990828211900360801b910360801c1790565b505090505060801c90565b907fffffffffffffffffffffffffffffffffffffffffffffffffffffffffffffffff8183098183029182808310920391808303921461380b57620f42409082821115611a45577fde8f6cefed634549b62c77574f722e1ac57e23f24d8fd5cb790fb65668c26139940990828211900360fa1b910360061c170290565b5050620f424091500490565b7fffffffffffffffffffffffffffffffffffffffffffffffffffffffffffffffff828209908281029283808410930392808403931461387a576c010000000000000000000000009183831115611a45570990828211900360a01b910360601c1790565b50505060601c90565b917fffffffffffffffffffffffffffffffffffffffffffffffffffffffffffffffff828409928281029283808610950394808603951461370b5784831115611a455782910981806000031680920460028082600302188083028203028083028203028083028203028083028203028083028203028092029003029360018380600003040190848311900302920304170290565b7fffffffffffffffffffffffffffffffffffffffffffffffffffffffffffffffff8114610baf5760010190565b9190620f424090613954818561378f565b930961395c57565b907fffffffffffffffffffffffffffffffffffffffffffffffffffffffffffffffff811015611a455761310690613916565b92919061399c828286613883565b9382156139aa570961395c57565b634e487b7160e01b600052601260045260246000fd5b600082600f0b126000146139f2576139da61310692613281565b6fffffffffffffffffffffffffffffffff169061335e565b613106916fffffffffffffffffffffffffffffffff16906132b1565b73ffffffffffffffffffffffffffffffffffffffff9182169082160391908211610baf57565b73ffffffffffffffffffffffffffffffffffffffff92909183811684841611613aaa575b838316938415611a455780613a70613a9e9584613a0e565b919092169291169060601b7bffffffffffffffffffffffffffffffff0000000000000000000000001661398e565b90808206151591040190565b91613a58565b73ffffffffffffffffffffffffffffffffffffffff91613adb919080841684831611613b4257613a0e565b16906fffffffffffffffffffffffffffffffff16613af98282613817565b916c010000000000000000000000009109613b115790565b7fffffffffffffffffffffffffffffffffffffffffffffffffffffffffffffffff811015611a455761310690613916565b90613a0e565b93909194929461ffff9182861015613d6257604091825197613b6989612d0c565b87600101549063ffffffff938480841698898d528c8860ff60208301978060201c60060b895260581c16151591015216809814613d5657869081831680838316119081613d1b575b506001939015613d135750995b160191858311610baf578589169283156139aa57859387869216069a8451613be581612d0c565b600095818780935282602082015201525116870391848311613ce65784905160060b921660060b9060020b02908160060b9182036131e0570192667fffffffffffff84137fffffffffffffffffffffffffffffffffffffffffffffffffff8000000000000085121761319557805195613c5d87612d0c565b8652602086019360060b845285019360018552881015613cb95750866001019351166affffffffffffff000000008454925160201b9360ff60581b9051151560581b169316916bffffffffffffffffffffffff19161717179055565b7f4e487b710000000000000000000000000000000000000000000000000000000081526032600452602490fd5b7f4e487b710000000000000000000000000000000000000000000000000000000084526011600452602484fd5b905099613bbe565b7fffffffffffffffffffffffffffffffffffffffffffffffffffffffffffffffff01925050878211610baf57879182168b8316146001613bb1565b50979850505050505050565b634e487b7160e01b600052603260045260246000fd5b61ffff9081831690828116821115613e0b575b8183821610613d9a5750505090565b82811015613df657600180820180547fffffffffffffffffffffffffffffffffffffffffffffffffffffffff000000001690911790558216808314613de157600101613d8b565b60246000634e487b7160e01b81526011600452fd5b60246000634e487b7160e01b81526032600452fd5b9250505090565b916040519160208301936bffffffffffffffffffffffff199060601b16845260e81b603483015260e81b6037820152601a8152613e4e81612d44565b51902060005262010004602052604060002090565b81156139aa570490565b6000939273ffffffffffffffffffffffffffffffffffffffff9260601b7bffffffffffffffffffffffffffffffff00000000000000000000000016918316808202821583820483141715610baf5781613ec68483613e63565b14613ed2575050505050565b83613ee292939495969750612dd3565b83811015613f0a575090613ef9613efe9284613e63565b612dd3565b80820615159104011690565b9150613f159261398e565b1690565b90600191959492939560020b9586600052620100036020526040600020918254848060801b0395868260081c1693613f5189866139c0565b94159a8b8987161514159b613fd4575b50505050508154906101008460881b039060081b16906101008460881b031916178155019182549182600f0b91600f0b9160008382019384129112908015821691151617610baf577fffffffffffffffffffffffffffffffff000000000000000000000000000000009092169116179055565b879460020b1215614011575b50507fffffffffffffffffffffffffffffffffffffffffffffffffffffffffffffff00161782553880808080613f61565b600286015560038501553880613fe0565b9060020b9081156139aa5760020b0790565b60020b9060020b9081156139aa577fffffffffffffffffffffffffffffffffffffffffffffffffffffffffff80000081147fffffffffffffffffffffffffffffffffffffffffffffffffffffffffffffffff831416610baf570590565b61409b8282614022565b60020b611a45576140af91610eee91614034565b9060010b60005262010005602052600160ff604060002092161b8154189055565b60020b60010190627fffff82137fffffffffffffffffffffffffffffffffffffffffffffffffffffffffff800000831217610baf57565b9060020b9060020b0190627fffff198212627fffff831317610baf57565b9060ff8091169116039060ff8211610baf57565b9060020b9060020b02908160020b918203610baf57565b60020b60008112156146bc5761416581613319565b620d89e8811161465d576001811615614646576ffffcb933bd6fad37aa2d162d1a5940015b70ffffffffffffffffffffffffffffffffff16916002821661461a575b6004918281166145ee575b600881166145c2575b60108116614596575b6020811661456a575b6040811661453e575b608090818116614513575b61010081166144e8575b61020081166144bd575b6104008116614492575b6108008116614467575b611000811661443c575b6120008116614411575b61400081166143e6575b61800081166143bb575b620100008116614390575b620200008116614366575b620400008116614328575b62080000166142e9575b506000126142a5575b5063ffffffff811661429a57613f156000915b73ffffffffffffffffffffffffffffffffffffffff9260ff169060201c612dd3565b613f15600191614278565b81156142d457507fffffffffffffffffffffffffffffffffffffffffffffffffffffffffffffffff0438614265565b601290634e487b7160e01b6000525260246000fd5b6b048a170391f7dc42444e8fa293919391828102928184041490151715614313571c91600061425c565b601183634e487b7160e01b6000525260246000fd5b936d2216e584f5fa1ea926041bedfe989081810291818304149015171561435157811c93614252565b601184634e487b7160e01b6000525260246000fd5b936e5d6af8dedb81196699c329225ee6049081810291818304149015171561435157811c93614247565b936f09aa508b5b7a84e1c677de54f3e99bc99081810291818304149015171561435157811c9361423c565b936f31be135f97d08fd981231505542fcfa69081810291818304149015171561435157811c93614231565b936f70d869a156d2a1b890bb3df62baf32f79081810291818304149015171561435157811c93614227565b936fa9f746462d870fdf8a65dc1f90e061e59081810291818304149015171561435157811c9361421d565b936fd097f3bdfd2022b8845ad8f792aa58259081810291818304149015171561435157811c93614213565b936fe7159475a2c29b7443b29c7fa6e889d99081810291818304149015171561435157811c93614209565b936ff3392b0822b70005940c7a398e4b70f39081810291818304149015171561435157811c936141ff565b936ff987a7253ac413176f2b074cf7815e549081810291818304149015171561435157811c936141f5565b936ffcbe86c7900a88aedcffc83b479aa3a49081810291818304149015171561435157811c936141eb565b936ffe5dee046a99a2a811c461f1969c30539081810291818304149015171561435157811c936141e1565b926fff2ea16466c96a3843ec78b326b52861908181029181830414901517156143135760801c926141d6565b926fff973b41fa98c081472e6896dfb254c0908181029181830414901517156143135760801c926141cd565b926fffcb9843d60f6159c9db58835c926644908181029181830414901517156143135760801c926141c4565b926fffe5caca7e10e4e61c3624eaa0941cd0908181029181830414901517156143135760801c926141bb565b926ffff2e50f5f656932ef12357cf3c7fdcc908181029181830414901517156143135760801c926141b2565b916ffff97272373d413259a46990580e213a90818102918183041490151715610baf5760801c916141a7565b70010000000000000000000000000000000061418a565b6040517f08c379a000000000000000000000000000000000000000000000000000000000815260206004820152600160248201527f54000000000000000000000000000000000000000000000000000000000000006044820152606490fd5b80614165565b73ffffffffffffffffffffffffffffffffffffffff818116916401000276a383101580614a52575b156149f357640100000000600160c01b039060201b16908160018060801b03831160071b9280841c9167ffffffffffffffff831160061b92831c9463ffffffff861160051b95861c9360049661ffff8611881b95861c60ff9687821160031b91821c92600f841160021b93841c94600160038711811b96871c1196171717171717179160808310156000146149df57507fffffffffffffffffffffffffffffffffffffffffffffffffffffffffffffff8182018281116149ca571c5b607f1982019182136001166149b5578002607f928392828493841c81841c1c800280851c81851c1c800280861c81861c1c800280871c81871c1c80029081881c82881c1c80029283891c84891c1c800294858a1c868a1c1c800296878b1c888b1c1c800298898c1c8a8c1c1c80029a8b8d1c8c821c1c8002809d1c8d821c1c8002809e81901c90821c1c80029e8f80911c911c1c800260cd1c6604000000000000169d60cc1c6608000000000000169c60cb1c6610000000000000169b60ca1c6620000000000000169a60c91c6640000000000000169960c81c66800000000000001698600160381b9060c71c1697600160391b9060c61c16966001603a1b9060c51c16956001603b1b9060c41c16946001603c1b9060c31c16936001603d1b9060c21c16926001603e1b9060c11c16916001603f1b9060c01c169060401b1717171717171717171717171717693627a301d71055774c8590818102918183051490151715614313577ffffffffffffffffffffffffffffffffffd709b7e5480fba5a50fed5e62ffc55681016001828213166143515760801d60020b926fdb2df09e81959a81455e260799a0632f91600083820193841291129080158216911516176149a0575060801d60020b9260009183850361498657505050905090565b61498f85614150565b1611905061499b575090565b905090565b601190634e487b7160e01b6000525260246000fd5b601185634e487b7160e01b6000525260246000fd5b601186634e487b7160e01b6000525260246000fd5b905081607f03607f81116149ca571b6147a6565b6040517f08c379a000000000000000000000000000000000000000000000000000000000815260206004820152600160248201527f52000000000000000000000000000000000000000000000000000000000000006044820152606490fd5b5073fffd8963efd1fc6a506488495d951d5263988d2683106146ea56fea26469706673582212201deeee05437eb71cecc7a77d54ef90aac72477a7a2aa52d472248ca7c60d786564736f6c63430008130033a264697066735822122015c8e527817c7886e0368c63c477288c0c53903304aa1bac741fca80b9dee7e264736f6c63430008130033",
  "linkReferences": {},
  "deployedLinkReferences": {}
}