{
  "_format": "hh-sol-artifact-1",
  "contractName": "UniswapV3Manager",
  "sourceName": "contracts/UniswapV3Manager.sol",
  "abi": [
    {
      "inputs": [
        {
          "internalType": "address",
          "name": "_factory",
          "type": "address"
        }
      ],
      "stateMutability": "nonpayable",
      "type": "constructor"
    },
    {
      "inputs": [
        {
          "internalType": "uint256",
          "name": "amountOut",
          "type": "uint256"
        }
      ],
      "name": "TooLittleReceived",
      "type": "error"
    },
    {
      "inputs": [
        {
          "components": [
            {
              "internalType": "address",
              "name": "tokenA",
              "type": "address"
            },
            {
              "internalType": "address",
              "name": "tokenB",
              "type": "address"
            },
            {
              "internalType": "uint24",
              "name": "tickSpacing",
              "type": "uint24"
            },
            {
              "internalType": "int24",
              "name": "lowerTick",
              "type": "int24"
            },
            {
              "internalType": "int24",
              "name": "upperTick",
              "type": "int24"
            },
            {
              "internalType": "uint256",
              "name": "amount0Desired",
              "type": "uint256"
            },
            {
              "internalType": "uint256",
              "name": "amount1Desired",
              "type": "uint256"
            },
            {
              "internalType": "uint256",
              "name": "amount0Min",
              "type": "uint256"
            },
            {
              "internalType": "uint256",
              "name": "amount1Min",
              "type": "uint256"
            }
          ],
          "internalType": "struct UniswapV3Manager.MintParams",
          "name": "params",
          "type": "tuple"
        }
      ],
      "name": "Checkliquidity",
      "outputs": [
        {
          "internalType": "uint128",
          "name": "",
          "type": "uint128"
        },
        {
          "internalType": "uint160",
          "name": "",
          "type": "uint160"
        },
        {
          "internalType": "uint160",
          "name": "",
          "type": "uint160"
        },
        {
          "internalType": "uint256",
          "name": "amount0",
          "type": "uint256"
        },
        {
          "internalType": "uint256",
          "name": "amount1",
          "type": "uint256"
        }
      ],
      "stateMutability": "view",
      "type": "function"
    },
    {
      "inputs": [],
      "name": "factory",
      "outputs": [
        {
          "internalType": "address",
          "name": "",
          "type": "address"
        }
      ],
      "stateMutability": "view",
      "type": "function"
    },
    {
      "inputs": [
        {
          "components": [
            {
              "internalType": "address",
              "name": "tokenA",
              "type": "address"
            },
            {
              "internalType": "address",
              "name": "tokenB",
              "type": "address"
            },
            {
              "internalType": "uint24",
              "name": "tickSpacing",
              "type": "uint24"
            },
            {
              "internalType": "int24",
              "name": "lowerTick",
              "type": "int24"
            },
            {
              "internalType": "int24",
              "name": "upperTick",
              "type": "int24"
            },
            {
              "internalType": "uint256",
              "name": "amount0Desired",
              "type": "uint256"
            },
            {
              "internalType": "uint256",
              "name": "amount1Desired",
              "type": "uint256"
            },
            {
              "internalType": "uint256",
              "name": "amount0Min",
              "type": "uint256"
            },
            {
              "internalType": "uint256",
              "name": "amount1Min",
              "type": "uint256"
            }
          ],
          "internalType": "struct UniswapV3Manager.MintParams",
          "name": "params",
          "type": "tuple"
        }
      ],
      "name": "mint",
      "outputs": [
        {
          "internalType": "uint256",
          "name": "amount0",
          "type": "uint256"
        },
        {
          "internalType": "uint256",
          "name": "amount1",
          "type": "uint256"
        }
      ],
      "stateMutability": "nonpayable",
      "type": "function"
    },
    {
      "inputs": [
        {
          "components": [
            {
              "internalType": "bytes",
              "name": "path",
              "type": "bytes"
            },
            {
              "internalType": "address",
              "name": "recipient",
              "type": "address"
            },
            {
              "internalType": "uint256",
              "name": "amountIn",
              "type": "uint256"
            },
            {
              "internalType": "uint256",
              "name": "minAmountOut",
              "type": "uint256"
            }
          ],
          "internalType": "struct UniswapV3Manager.SwapParams",
          "name": "params",
          "type": "tuple"
        }
      ],
      "name": "swap",
      "outputs": [
        {
          "internalType": "uint256",
          "name": "amountOut",
          "type": "uint256"
        }
      ],
      "stateMutability": "nonpayable",
      "type": "function"
    },
    {
      "inputs": [
        {
          "components": [
            {
              "internalType": "address",
              "name": "tokenIn",
              "type": "address"
            },
            {
              "internalType": "address",
              "name": "tokenOut",
              "type": "address"
            },
            {
              "internalType": "uint24",
              "name": "tickSpacing",
              "type": "uint24"
            },
            {
              "internalType": "uint256",
              "name": "amountIn",
              "type": "uint256"
            },
            {
              "internalType": "uint160",
              "name": "sqrtPriceLimitX96",
              "type": "uint160"
            }
          ],
          "internalType": "struct UniswapV3Manager.SwapSingleParams",
          "name": "params",
          "type": "tuple"
        }
      ],
      "name": "swapSingle",
      "outputs": [
        {
          "internalType": "uint256",
          "name": "amountOut",
          "type": "uint256"
        }
      ],
      "stateMutability": "nonpayable",
      "type": "function"
    },
    {
      "inputs": [
        {
          "internalType": "uint256",
          "name": "amount0",
          "type": "uint256"
        },
        {
          "internalType": "uint256",
          "name": "amount1",
          "type": "uint256"
        },
        {
          "internalType": "bytes",
          "name": "data",
          "type": "bytes"
        }
      ],
      "name": "uniswapV3MintCallback",
      "outputs": [],
      "stateMutability": "nonpayable",
      "type": "function"
    },
    {
      "inputs": [
        {
          "internalType": "int256",
          "name": "amount0",
          "type": "int256"
        },
        {
          "internalType": "int256",
          "name": "amount1",
          "type": "int256"
        },
        {
          "internalType": "bytes",
          "name": "data",
          "type": "bytes"
        }
      ],
      "name": "uniswapV3SwapCallback",
      "outputs": [],
      "stateMutability": "nonpayable",
      "type": "function"
    }
  ],
  "bytecode": "0x60a0346100a657601f62006984388190039182017fffffffffffffffffffffffffffffffffffffffffffffffffffffffffffffffe01683019167ffffffffffffffff8311848410176100ab578084926020946040528339810103126100a6575173ffffffffffffffffffffffffffffffffffffffff811681036100a6576080526040516168c29081620000c282396080518181816101db0152818161075601526112d30152f35b600080fd5b634e487b7160e01b600052604160045260246000fdfe608060405260043610156200001357600080fd5b60003560e01c8063049bbb121462000095578063111036f8146200008f578063aa88a96c1462000089578063c45a01551462000083578063cf8c2a38146200007d578063d348799714620000775763fa461e33146200007157600080fd5b62000ba1565b620009ea565b620008bf565b62000720565b62000408565b6200018b565b34620001735760a0367ffffffffffffffffffffffffffffffffffffffffffffffffffffffffffffffffc011262000173576200016f6200015f608435620000dc8162000893565b600435620000ea8162000893565b620000f462000d5f565b60243590620001038262000893565b6bffffffffffffffffffffffff19809360601b1660a05262ffffff60e81b9060e81b1660b45260601b1660b752602b6080526200014060e0604052565b6200014a62000828565b608081523360208201529033606435620011fb565b6040519081529081906020820190565b0390f35b600080fd5b6101209060031901126200017357600490565b3462000173576200019c3662000178565b6004600080620001ac8462000d50565b620001ba6020860162000d50565b6200021962000200620002006040948594620001d8868c0162000d72565b917f000000000000000000000000000000000000000000000000000000000000000062001ba9565b73ffffffffffffffffffffffffffffffffffffffff1690565b81517f3850c7bd00000000000000000000000000000000000000000000000000000000815295869182905afa8015620004025782948391620003c5575b50946200016f939495606082019662000279620002738962000dc5565b62002033565b976080840190620002a662000292620002738462000dc5565b9560a060c0820135910135878d8762001415565b988994620002be620002b88462000dc5565b60020b90565b9060020b908112600014620003455750505090620002e562000273620002ec949362000dc5565b90620016f8565b915b516fffffffffffffffffffffffffffffffff909516855273ffffffffffffffffffffffffffffffffffffffff95861660208601529490941660408401526060830193909352608082019290925290819060a0820190565b909196975062000359620002b88462000dc5565b13156200039f57509062000391620002736200038a85620003836200027362000398989762000dc5565b85620016f8565b9662000dc5565b90620017cd565b92620002ee565b946200039893925062000273620003be62000273620003919362000dc5565b9262000dc5565b6200016f949550620003f19150823d8411620003fa575b620003e8818362000805565b81019062000d8f565b90949362000256565b503d620003dc565b62000db9565b346200017357620004193662000178565b620004248162000d50565b9060206200045162000200620002006200044084860162000d50565b95604096620001d888880162000d72565b83517f3850c7bd00000000000000000000000000000000000000000000000000000000815292908484600481845afa9384156200040257600094620006fb575b5060608201620004d0620004a9620002738362000dc5565b936080810196620004be620002738962000dc5565b8660a060c08501359401359262001415565b90865193630dfe168160e01b85528585600481875afa9485156200040257600095620006d7575b5087517fd21220a7000000000000000000000000000000000000000000000000000000008152958087600481885afa801562000402578997600091620006a3575b506200054362000839565b73ffffffffffffffffffffffffffffffffffffffff978816815290871682820152338882015287518151881692810192835260208083015189169084015260409182015190971681830152908690039081018652620005a6906060018662000805565b620005b062000de9565b620005e69173ffffffffffffffffffffffffffffffffffffffff16906fffffffffffffffffffffffffffffffff851690620013b3565b620005f19062000dc5565b94620005fd9062000dc5565b84517f3c8a7d8d000000000000000000000000000000000000000000000000000000008152958694859384936200063993336004870162000e7d565b03915a90600091f19182156200040257600091829362000666575b50519081526020810191909152604090f35b81620006929294506200016f93503d85116200069b575b62000689818362000805565b81019062000e24565b92909162000654565b503d6200067d565b620006c89150823d8411620006cf575b620006bf818362000805565b81019062000dd1565b3862000538565b503d620006b3565b620006f3919550863d8811620006cf57620006bf818362000805565b9338620004f7565b62000717919450853d8711620003fa57620003e8818362000805565b50923862000491565b3462000173576000367ffffffffffffffffffffffffffffffffffffffffffffffffffffffffffffffffc011262000173576040517f000000000000000000000000000000000000000000000000000000000000000073ffffffffffffffffffffffffffffffffffffffff168152602090f35b634e487b7160e01b600052604160045260246000fd5b6080810190811067ffffffffffffffff821117620007c557604052565b62000792565b6040810190811067ffffffffffffffff821117620007c557604052565b6060810190811067ffffffffffffffff821117620007c557604052565b90601f8019910116810190811067ffffffffffffffff821117620007c557604052565b604051906200083782620007cb565b565b604051906200083782620007e8565b9062000837604051928362000805565b67ffffffffffffffff8111620007c557601f017fffffffffffffffffffffffffffffffffffffffffffffffffffffffffffffffe01660200190565b73ffffffffffffffffffffffffffffffffffffffff8116036200017357565b3590620008378262000893565b3462000173577ffffffffffffffffffffffffffffffffffffffffffffffffffffffffffffffffc60203682011262000173576004359067ffffffffffffffff90818311620001735760809083360301126200017357604051906200092382620007a8565b82600401359081116200017357820190366023830112156200017357600482013591620009508362000858565b9362000960604051958662000805565b838552366024858401011162000173576200016f9460006020866200015f97602460649701838601378301015283526200099d60248201620008b2565b6020840152604481013560408401520135606082015262000ed9565b9181601f84011215620001735782359167ffffffffffffffff83116200017357602083818601950101116200017357565b3462000173576060367ffffffffffffffffffffffffffffffffffffffffffffffffffffffffffffffffc0112620001735760443567ffffffffffffffff8111620001735762000a4f62000a4662000abf923690600401620009b9565b81019062001303565b805162000a7490620002009073ffffffffffffffffffffffffffffffffffffffff1681565b6040820180519092919073ffffffffffffffffffffffffffffffffffffffff169260405193846323b872dd60e01b938482528160008160209a8b966004359033906004850162001384565b03925af1938415620004025762000b06620002006200020088809762000b219562000b3f9a62000b7f575b50015173ffffffffffffffffffffffffffffffffffffffff1690565b915173ffffffffffffffffffffffffffffffffffffffff1690565b91600060405180968195829483526024359033906004850162001384565b03925af18015620004025762000b5157005b8162000b7592903d1062000b77575b62000b6c818362000805565b8101906200136a565b005b503d62000b60565b62000b9990833d851162000b775762000b6c818362000805565b503862000aea565b3462000173576060367ffffffffffffffffffffffffffffffffffffffffffffffffffffffffffffffffc0112620001735760043560243560443567ffffffffffffffff8111620001735762000a4662000bff913690600401620009b9565b60009283811362000cb4575b5082821362000c18578280f35b62000c7d918162000c5d604062000c41620002006200020060208098015160018060a01b031690565b92015173ffffffffffffffffffffffffffffffffffffffff1690565b856040518096819582946323b872dd60e01b845233906004850162001384565b03925af18015620004025762000c9257808280f35b62000cad9060203d811162000b775762000b6c818362000805565b5038808280f35b815162000d1c9160209162000ce190620002009073ffffffffffffffffffffffffffffffffffffffff1681565b604085015173ffffffffffffffffffffffffffffffffffffffff16876040518096819582946323b872dd60e01b845233906004850162001384565b03925af1801562000402571562000c0b5762000d489060203d811162000b775762000b6c818362000805565b503862000c0b565b3562000d5c8162000893565b90565b60443562ffffff81168103620001735790565b3562ffffff81168103620001735790565b8060020b036200017357565b919082604091031262000173576020825162000dab8162000893565b92015162000d5c8162000d83565b6040513d6000823e3d90fd5b3562000d5c8162000d83565b9081602091031262000173575162000d5c8162000893565b6040519062000df882620007cb565b601882527f4f4b49452c206c65742773206d696e74202025732020257300000000000000006020830152565b919082604091031262000173576020825192015190565b919082519283825260005b84811062000e68575050826000602080949584010152601f8019910116010190565b60208183018101518483018201520162000e46565b73ffffffffffffffffffffffffffffffffffffffff9091168152600291820b602082015291900b60408201526fffffffffffffffffffffffffffffffff909116606082015260a06080820181905262000d5c9291019062000e3b565b906000335b83519062000f3d60428351101591604087019384518460001462000fa05762000f3762000f0c3093620018b4565b9362000f1762000828565b94855273ffffffffffffffffffffffffffffffffffffffff166020850152565b620010c4565b80925260001462000f5e57503062000f568451620019ef565b845262000ede565b60609150920151821062000f6e57565b6040517f4704aaf800000000000000000000000000000000000000000000000000000000815260048101839052602490fd5b602089015162000f379062000f0c9073ffffffffffffffffffffffffffffffffffffffff1693620018b4565b634e487b7160e01b600052601160045260246000fd5b73ffffffffffffffffffffffffffffffffffffffff91821690821603919082116200100957565b62000fcc565b6020815260406200102c8351826020850152606084019062000e3b565b60209093015173ffffffffffffffffffffffffffffffffffffffff1691015290565b73ffffffffffffffffffffffffffffffffffffffff9182168152911515602083015260408201929092529116606082015260a06080820181905262000d5c9291019062000e3b565b7f80000000000000000000000000000000000000000000000000000000000000008114620010095760000390565b604090620011099392620002006000620010df865162001aa6565b73ffffffffffffffffffffffffffffffffffffffff80831690841610998a959093909290620012a6565b92828214620011d3576200117a62001135620011446401000276a4995b8951928391602083016200100f565b03601f19810183528262000805565b87517fdd5a12d800000000000000000000000000000000000000000000000000000000815298899788968795600487016200104e565b03925af1908115620004025762000d5c926000918293620011ac575b5015620011a4575062001096565b905062001096565b909250620011cb915060403d81116200069b5762000689818362000805565b913862001196565b6200117a620011356200114473fffd8963efd1fc6a506488495d951d5263988d259962001126565b60006040929493946200120f855162001aa6565b9391929097620012346200020060018060a01b0396878c16888816109b8c97620012a6565b9481161583146200129257508282146200126b576200117a62001135620011446401000276a45b998951928391602083016200100f565b6200117a620011356200114473fffd8963efd1fc6a506488495d951d5263988d256200125b565b62001135620011446200117a929962001126565b73ffffffffffffffffffffffffffffffffffffffff92620012f89290918482168582161015620012fc575b7f000000000000000000000000000000000000000000000000000000000000000062001ba9565b1690565b90620012d1565b90816060910312620001735760405190606082019082821067ffffffffffffffff831117620007c557604091825280356200133e8162000893565b83526020810135620013508162000893565b60208401520135620013628162000893565b604082015290565b908160209103126200017357518015158103620001735790565b73ffffffffffffffffffffffffffffffffffffffff918216815291166020820152604081019190915260600190565b60009291620014028493604051928391620013e8602084019663ca47c4eb60e01b885260606024860152608485019062000e3b565b916044840152606483015203601f19810183528262000805565b51906a636f6e736f6c652e6c6f675afa50565b90939073ffffffffffffffffffffffffffffffffffffffff9083821682871611620014ae575b8116908581168211620014565750505062000d5c92620014b7565b919391831610620014a25790620014746200147b93928286620014b7565b93620016a1565b6fffffffffffffffffffffffffffffffff81811690831610156200149d575090565b905090565b5062000d5c92620016a1565b9294926200143b565b9173ffffffffffffffffffffffffffffffffffffffff8281168185161162001518575b928362001510620014f58596620012f8961683851662001529565b6fffffffffffffffffffffffffffffffff9690939062000fe2565b169162001655565b919291620014da565b156200017357565b7fffffffffffffffffffffffffffffffffffffffffffffffffffffffffffffffff82820990828102928380841093039280840393146200158e576c01000000000000000000000000918383111562000173570990828211900360a01b910360601c1790565b50505060601c90565b6c01000000000000000000000000917fffffffffffffffffffffffffffffffffffffffffffffffffffffffffffffffff838309928260601b928380861095039480860395146200164057908291620015f186841162001521565b0981806000031680920460028082600302188083028203028083028203028083028203028083028203028083028203028092029003029360018380600003040190848311900302920304170290565b505091506200165182151562001521565b0490565b90917fffffffffffffffffffffffffffffffffffffffffffffffffffffffffffffffff83830992808302928380861095039480860395146200164057908291620015f186841162001521565b9173ffffffffffffffffffffffffffffffffffffffff82811681851611620016ef575b6fffffffffffffffffffffffffffffffff93620012f893620016e7919062000fe2565b169062001597565b919291620016c4565b919073ffffffffffffffffffffffffffffffffffffffff80821681851611620017c4575b808416928315620001735760601b7bffffffffffffffffffffffffffffffff0000000000000000000000001693819062001757908462000fe2565b169116906200176882828662001655565b938215620017be570962001782575b808206151591040190565b907fffffffffffffffffffffffffffffffffffffffffffffffffffffffffffffffff808210156200017357811462001009576001019062001777565b62001872565b9290926200171c565b73ffffffffffffffffffffffffffffffffffffffff91620017fb9190808416848316116200186b5762000fe2565b16906fffffffffffffffffffffffffffffffff166200181b828262001529565b916c010000000000000000000000009109620018345790565b7fffffffffffffffffffffffffffffffffffffffffffffffffffffffffffffffff8082101562000173578114620010095760010190565b9062000fe2565b634e487b7160e01b600052601260045260246000fd5b90601f82018092116200100957565b60170190816017116200100957565b919082018092116200100957565b620018c4602b8251101562001988565b60405190600b8083019101603683015b8083106200190d575050602b8252601f017fffffffffffffffffffffffffffffffffffffffffffffffffffffffffffffffe01660405290565b9091825181526020809101920190620018d4565b156200192957565b6040517f08c379a000000000000000000000000000000000000000000000000000000000815260206004820152600e60248201527f736c6963655f6f766572666c6f770000000000000000000000000000000000006044820152606490fd5b156200199057565b6040517f08c379a000000000000000000000000000000000000000000000000000000000815260206004820152601160248201527f736c6963655f6f75744f66426f756e64730000000000000000000000000000006044820152606490fd5b80519062001a0a8262001a028162001888565b101562001921565b62001a23815162001a1b8462001897565b111562001988565b8162001a3c575050604051600081526020810160405290565b60405191601f8116916017831560051b80858701019484860193010101905b80841062001a925750508252601f017fffffffffffffffffffffffffffffffffffffffffffffffffffffffffffffffe01660405290565b909283518152602080910193019062001a5b565b90601482511062001b3657602082015160601c91601781511062001ad75762001ad460178201519162001b95565b91565b6040517f08c379a000000000000000000000000000000000000000000000000000000000815260206004820152601460248201527f746f55696e7432345f6f75744f66426f756e64730000000000000000000000006044820152606490fd5b6040517f08c379a000000000000000000000000000000000000000000000000000000000815260206004820152601560248201527f746f416464726573735f6f75744f66426f756e647300000000000000000000006044820152606490fd5b602b81511062001b36576037015160601c90565b90929173ffffffffffffffffffffffffffffffffffffffff8082169085161015620001735762000d5c9362000200936040519160208301936bffffffffffffffffffffffff19809260601b16855260601b16603483015262ffffff60e81b9060e81b166048820152602b815262001c2081620007e8565b51902062001cb961450262001c386020820162000848565b81815260208101916200238b83395190206040517fff000000000000000000000000000000000000000000000000000000000000006020820190815260609590951b7fffffffffffffffffffffffffffffffffffffffff00000000000000000000000016602182015260358101939093526055830152816075810162001135565b51902073ffffffffffffffffffffffffffffffffffffffff1690565b1562001cdd57565b6040517f08c379a000000000000000000000000000000000000000000000000000000000815260206004820152600160248201527f54000000000000000000000000000000000000000000000000000000000000006044820152606490fd5b906ffff97272373d413259a46990580e213a918281029281840414901517156200100957565b906ffff2e50f5f656932ef12357cf3c7fdcc918281029281840414901517156200100957565b906fffe5caca7e10e4e61c3624eaa0941cd0918281029281840414901517156200100957565b906fffcb9843d60f6159c9db58835c926644918281029281840414901517156200100957565b906fff973b41fa98c081472e6896dfb254c0918281029281840414901517156200100957565b906fff2ea16466c96a3843ec78b326b52861918281029281840414901517156200100957565b906ffe5dee046a99a2a811c461f1969c3053918281029281840414901517156200100957565b906ffcbe86c7900a88aedcffc83b479aa3a4918281029281840414901517156200100957565b906ff987a7253ac413176f2b074cf7815e54918281029281840414901517156200100957565b906ff3392b0822b70005940c7a398e4b70f3918281029281840414901517156200100957565b906fe7159475a2c29b7443b29c7fa6e889d9918281029281840414901517156200100957565b906fd097f3bdfd2022b8845ad8f792aa5825918281029281840414901517156200100957565b906fa9f746462d870fdf8a65dc1f90e061e5918281029281840414901517156200100957565b906f70d869a156d2a1b890bb3df62baf32f7918281029281840414901517156200100957565b906f31be135f97d08fd981231505542fcfa6918281029281840414901517156200100957565b906f09aa508b5b7a84e1c677de54f3e99bc9918281029281840414901517156200100957565b906e5d6af8dedb81196699c329225ee604918281029281840414901517156200100957565b906d2216e584f5fa1ea926041bedfe98918281029281840414901517156200100957565b906b048a170391f7dc42444e8fa2918281029281840414901517156200100957565b8015620017be577fffffffffffffffffffffffffffffffffffffffffffffffffffffffffffffffff0490565b6200020062000d5c9160020b600081126000146200238357620020568162001096565b905b62002069620d89e883111562001cd5565b60018216156200236b576ffffcb933bd6fad37aa2d162d1a5940015b70ffffffffffffffffffffffffffffffffff16916002811662002354575b600481166200233d575b6008811662002326575b601081166200230f575b60208116620022f8575b60408116620022e1575b60808116620022ca575b6101008116620022b3575b61020081166200229c575b610400811662002285575b61080081166200226e575b611000811662002257575b612000811662002240575b614000811662002229575b618000811662002212575b620100008116620021fb575b620200008116620021e4575b620400008116620021c7575b6208000016620021a6575b60001262002195575b63ffffffff81166200218b5760ff60005b169060201c620018a6565b60ff600162002180565b620021a09062002007565b6200216f565b90620021be620021b860009262001fe5565b60801c90565b91905062002166565b91620021db620021b8620800009262001fc1565b9290506200215b565b91620021b8620021f49162001f9c565b916200214f565b91620021b86200220b9162001f76565b9162002143565b91620021b8620022229162001f50565b9162002137565b91620021b8620022399162001f2a565b916200212c565b91620021b8620022509162001f04565b9162002121565b91620021b8620022679162001ede565b9162002116565b91620021b86200227e9162001eb8565b916200210b565b91620021b8620022959162001e92565b9162002100565b91620021b8620022ac9162001e6c565b91620020f5565b91620021b8620022c39162001e46565b91620020ea565b91620021b8620022da9162001e20565b91620020df565b91620021b8620022f19162001dfa565b91620020d5565b91620021b8620023089162001dd4565b91620020cb565b91620021b86200231f9162001dae565b91620020c1565b91620021b8620023369162001d88565b91620020b7565b91620021b86200234d9162001d62565b91620020ad565b91620021b8620023649162001d3c565b91620020a3565b70010000000000000000000000000000000062002085565b806200205856fe6101208060405234620001f9577f8903573000000000000000000000000000000000000000000000000000000000815260a0908181600481335afa908115620001ed57600090819082908390849562000108575b5061010094855260e052845260805260c052604051906142d0928362000232843960805183818161163301528181611fa4015281816120c7015281816128010152612f7101525182818161143e0152818161191e01528181611e59015281816121010152613028015260c051826119b0015260e05182818161054c01528181610d590152818161109601528181611197015281816112920152818161197601528181612db50152612df40152518161027d0152f35b9450505050823d8411620001e5575b601f81017fffffffffffffffffffffffffffffffffffffffffffffffffffffffffffffffe016830167ffffffffffffffff811184821017620001b8578491849160405281010312620001b557506200016f81620001fe565b906200017e60208201620001fe565b906200018d60408201620001fe565b90620001aa6080620001a26060840162000220565b920162000220565b939291903862000053565b80fd5b7f4e487b710000000000000000000000000000000000000000000000000000000083526041600452602483fd5b503d62000117565b6040513d6000823e3d90fd5b600080fd5b519073ffffffffffffffffffffffffffffffffffffffff82168203620001f957565b519062ffffff82168203620001f95756fe608080604052600436101561001357600080fd5b600090813560e01c9081630dfe1681146127ed575080631a686502146127bb5780633850c7bd1461277b5780633c8a7d8d1461241a57806346141319146123fc5780634a182392146120265780634f1eb3d814611c6a578063514ea4bf14611beb5780635339c29614611b97578063a34123a7146119ec578063c45a01551461199a578063d0c93a7c1461195a578063d21220a714611908578063dd5a12d8146102a1578063ddca3f4314610261578063f305839914610243578063f30dba93146101b65763f637731d146100e757600080fd5b346101b3576020367ffffffffffffffffffffffffffffffffffffffffffffffffffffffffffffffffc01126101b35761011e61283d565b815473ffffffffffffffffffffffffffffffffffffffff919082166101885761014681613eed565b91604051916101548361293f565b169081815260208360020b9101526000549160a01b62ffffff60a01b169168ffffffffffffffffff60b81b16171760005580f35b6040517f0dc149f0000000000000000000000000000000000000000000000000000000008152600490fd5b80fd5b50346101b3576020367ffffffffffffffffffffffffffffffffffffffffffffffffffffffffffffffffc01126101b357604060a0916101f3612880565b60020b81526004602052208054906001810154600f0b9060036002820154910154916040519360ff81161515855260018060801b039060081c166020850152604084015260608301526080820152f35b50346101b357806003193601126101b3576020600254604051908152f35b50346101b357806003193601126101b357602060405162ffffff7f0000000000000000000000000000000000000000000000000000000000000000168152f35b50346101b35760a0367ffffffffffffffffffffffffffffffffffffffffffffffffffffffffffffffffc01126101b3576102d961283d565b6024351515602435036115e25760643573ffffffffffffffffffffffffffffffffffffffff811690036119035760843567ffffffffffffffff81116118ff576103269036906004016128af565b909161036a6040516103378161293f565b601781527f20616d6f756e745370656369666965643f2025732e2e2e000000000000000000602082015260443590613100565b6103c26040516103798161293f565b601981527f207371727450726963654c696d69745839363f2025732e2e2e00000000000000602082015260643573ffffffffffffffffffffffffffffffffffffffff1690613100565b6103ca6129e5565b6001549093906fffffffffffffffffffffffffffffffff16602435156118a357845173ffffffffffffffffffffffffffffffffffffffff90811660643590911611801561187d575b611852576104546040516104258161293f565b601481527f2047657420494e207377617053746174652e2e2e00000000000000000000000060208201526130b1565b8451602086015173ffffffffffffffffffffffffffffffffffffffff90911695906024351561184957600254905b6040519761048f89612923565b60443589528960208a0152604089015260020b606088015282608088015260a08701526104f06040516104c18161293f565b601181527f205374617274696e67204c6f6f702e2e2e00000000000000000000000000000060208201526130b1565b855115158061181f575b156112c65760405161050b81612923565b8781528760208201528760408201528760608201528760808201528760a082015260018060a01b036040880151168152606087015160020b61057562ffffff7f00000000000000000000000000000000000000000000000000000000000000001660020b82613861565b908981129081611287575b50611222575b60243515610dbe576105a88160020b9060ff6101008360081d60010b93071690565b9190600160ff84161b7fffffffffffffffffffffffffffffffffffffffffffffffffffffffffffffffff810111610d915761062261060e600160ff86161b7fffffffffffffffffffffffffffffffffffffffffffffffffffffffffffffffff81016129d8565b9160010b6000526006602052604060002090565b5416918215610d4757828b938015610d4357700100000000000000000000000000000000811015610d35575b5068010000000000000000811015610d18575b640100000000811015610cfb575b62010000811015610cdf575b610100811015610cc3575b6010811015610ca6575b6004811015610c89575b60021115610c6d575b6106b26106bc9360ff92613950565b1660020b90612e81565b60020b60208201526107286040516106d38161295b565b602381527f4f6b69652c20646f6e652066696e64207469636b2077697468206c697175696460208201527f697479000000000000000000000000000000000000000000000000000000000060408201526130b1565b602081015173ffffffffffffffffffffffffffffffffffffffff9061074f9060020b61397b565b16604082810182905288015173ffffffffffffffffffffffffffffffffffffffff169060243515610c4d5760643573ffffffffffffffffffffffffffffffffffffffff1681105b15610c475750606435905b60018060801b0360808a0151169189519160a08b0151928c93620f4240958682810311610c0957908e95949392916107db82890384613190565b73ffffffffffffffffffffffffffffffffffffffff86168510610c36576108038287876134c3565b975b888210610b77575050508590845b73ffffffffffffffffffffffffffffffffffffffff908116989086168914610b6157505061084091612e74565b915b73ffffffffffffffffffffffffffffffffffffffff1611610b59575b60a08501526080840152606083015260408801526108fc604051610881816128dd565b605081527f4f6b69652c20646f6e652043616c63756c6174652074686520616d6f756e747360208201527f20746861742063616e2062652070726f7669646572206279207468652063757260408201527f72656e742070726963652072616e67650000000000000000000000000000000060608201526130b1565b61090b60608201518851612e74565b875261091f608082015160208901516129d8565b602088015260808701516fffffffffffffffffffffffffffffffff1680610b33575b506040878101519082015173ffffffffffffffffffffffffffffffffffffffff91821691168103610af757506001602082015160020b602435600014610aee5760a0890151905b60243515610ad2576109aa6003549160020b6000526004602052604060002090565b916109bb6002840191825490612e74565b90556109cd6003830191825490612e74565b90550154600f0b602435610ac4575b60808801516fffffffffffffffffffffffffffffffff916109fe91831661344f565b1680608089015215610a995760243515610a8d576020015160020b7fffffffffffffffffffffffffffffffffffffffffffffffffffffffffffffffff017fffffffffffffffffffffffffffffffffffffffffffffffffffffffffff8000008112627fffff821317610a77575b60020b60608701526104f0565b634e487b7160e01b600052601160045260246000fd5b6020015160020b610a6a565b6040517f4323a555000000000000000000000000000000000000000000000000000000008152600490fd5b610acd90612e22565b6109dc565b6109aa60a08b01519160020b6000526004602052604060002090565b60025490610988565b905173ffffffffffffffffffffffffffffffffffffffff168103610b1c575b506104f0565b610b2590613eed565b60020b606087015238610b16565b610b44610b4e9160a0840151613225565b60a08901516129d8565b60a088015238610941565b91909161085e565b610b7193508192500390866135db565b91610842565b5090965090945073ffffffffffffffffffffffffffffffffffffffff84168310610bc557610ba690868461369c565b8094610bbf610bb68884876134c3565b9788938661353f565b95610813565b73ffffffffffffffffffffffffffffffffffffffff90610be990879060601b613692565b16820173ffffffffffffffffffffffffffffffffffffffff811115610ba6575b7f4e487b71000000000000000000000000000000000000000000000000000000008f52601160045260248ffd5b610c4182878761353f565b97610805565b906107a1565b60643573ffffffffffffffffffffffffffffffffffffffff168111610796565b60ff60018185160111610a775760ff92909216600101916106a3565b60021c9260ff60028183160111610a775760ff166002019261069a565b60041c9260ff60048183160111610a775760ff1660040192610690565b600890811c9360ff828183160111610a775760ff160192610686565b601090811c9360ff828183160111610a775760ff16019261067b565b60201c9260ff60208183160111610a775760ff166020019261066f565b60401c9260ff60408183160111610a775760ff1660400192610661565b60809450841c90503861064e565b8c80fd5b90610d8c9250610d879060ff62ffffff7f00000000000000000000000000000000000000000000000000000000000000001660020b931660020b90612e81565b613964565b6106bc565b7f4e487b71000000000000000000000000000000000000000000000000000000008b52601160045260248bfd5b610de0610dca826138fb565b60020b9060ff6101008360081d60010b93071690565b9190600160ff84161b806000198101116111f557610e119060001901199160010b6000526006602052604060002090565b5416918215918261116d57610e25906138fb565b9280926111695760ff906fffffffffffffffffffffffffffffffff81161561115f575050607f5b67ffffffffffffffff8316156111555760ff8181167fffffffffffffffffffffffffffffffffffffffffffffffffffffffffffffffc00111610a775760ff167fffffffffffffffffffffffffffffffffffffffffffffffffffffffffffffffc0015b63ffffffff83161561114b5760ff8181167fffffffffffffffffffffffffffffffffffffffffffffffffffffffffffffffe00111610a775760ff167fffffffffffffffffffffffffffffffffffffffffffffffffffffffffffffffe0015b61ffff8316156111415760ff8181167ffffffffffffffffffffffffffffffffffffffffffffffffffffffffffffffff00111610a775760ff167ffffffffffffffffffffffffffffffffffffffffffffffffffffffffffffffff0015b60ff8316156111375760ff8181167ffffffffffffffffffffffffffffffffffffffffffffffffffffffffffffffff80111610a775760ff167ffffffffffffffffffffffffffffffffffffffffffffffffffffffffffffffff8015b600f83161561112d5760ff8181167ffffffffffffffffffffffffffffffffffffffffffffffffffffffffffffffffc0111610a775760ff167ffffffffffffffffffffffffffffffffffffffffffffffffffffffffffffffffc015b60038316156111215760ff8181167ffffffffffffffffffffffffffffffffffffffffffffffffffffffffffffffffe0111610a775760ff167ffffffffffffffffffffffffffffffffffffffffffffffffffffffffffffffffe01916001905b166110c9575b610d8c9260ff6110bf610d879362ffffff7f00000000000000000000000000000000000000000000000000000000000000001660020b95613950565b1660020b90613932565b9060ff8082167fffffffffffffffffffffffffffffffffffffffffffffffffffffffffffffffff0111610a775760ff167fffffffffffffffffffffffffffffffffffffffffffffffffffffffffffffffff0190611083565b9160019060021c61107d565b9160041c9161101e565b9160081c91610fc3565b9160101c91610f68565b9160201c91610f0c565b9160401c91610eae565b60801c9250610e4c565b8b80fd5b90925061117a91506138fb565b60ff8083168103116111c85790610d87610d8c9260ff8062ffffff7f00000000000000000000000000000000000000000000000000000000000000001660020b941681031660020b90613932565b7f4e487b71000000000000000000000000000000000000000000000000000000008a52601160045260248afd5b7f4e487b71000000000000000000000000000000000000000000000000000000008c52601160045260248cfd5b627fffff198160020b1461125a5760020b7fffffffffffffffffffffffffffffffffffffffffffffffffffffffffffffffff01610586565b7f4e487b710000000000000000000000000000000000000000000000000000000089526011600452602489fd5b6112bb915062ffffff7f00000000000000000000000000000000000000000000000000000000000000001660020b9061384f565b60020b151538610580565b6113046040516112d58161293f565b600d81527f20446f6e65204c6f6f702e2e2e0000000000000000000000000000000000000060208201526130b1565b6020606087015191015160020b8160020b036117b1575b5060408581015190516113779173ffffffffffffffffffffffffffffffffffffffff16906113488161293f565b601881527f2055706461746520537461746550726963652025732e2e2e00000000000000006020820152613100565b60808501516fffffffffffffffffffffffffffffffff169081900361177f575b50602435156117725760a08401516002555b60243515611752576113cb60206113c38651604435612e74565b950151612eba565b925b602435156116205761143960206113e386612eba565b6040517fa9059cbb00000000000000000000000000000000000000000000000000000000815273ffffffffffffffffffffffffffffffffffffffff87166004820152602481019190915291829081906044820190565b03818a7f000000000000000000000000000000000000000000000000000000000000000073ffffffffffffffffffffffffffffffffffffffff165af18015611615576115e6575b508561148a612f3d565b92333b156115e2576040517ffa461e33000000000000000000000000000000000000000000000000000000008152928291849182916114cf91908a8c60048601612eff565b038183335af19182156115d55786926115ba575b50506114ee916129d8565b6114f6612f3d565b1061158f5760e07fc42079f94a6350d7e6235f29174924f928cc2ac818eb64fed8004e115fbcca67916040955b54600154875133815273ffffffffffffffffffffffffffffffffffffffff93841660208201528089018890526060810187905292821660808401526fffffffffffffffffffffffffffffffff1660a0808401919091521c60020b60c0820152a182519182526020820152f35b6040517f098fb561000000000000000000000000000000000000000000000000000000008152600490fd5b6115c591925061290f565b6115d1578385386114e3565b8480fd5b50604051903d90823e3d90fd5b5080fd5b6116079060203d60201161160e575b6115ff8183612977565b810190612ee7565b5038611480565b503d6115f5565b6040513d89823e3d90fd5b61162e60206113e387612eba565b03818a7f000000000000000000000000000000000000000000000000000000000000000073ffffffffffffffffffffffffffffffffffffffff165af1801561161557611733575b508561167f612ff4565b92333b156115e2576040517ffa461e33000000000000000000000000000000000000000000000000000000008152928291849182916116c491908a8c60048601612eff565b038183335af19182156115d557859261171c575b50506116e3916129d8565b6116eb612ff4565b1161158f5760e07fc42079f94a6350d7e6235f29174924f928cc2ac818eb64fed8004e115fbcca6791604095611523565b61172791925061290f565b6115d1578285386116d8565b61174b9060203d60201161160e576115ff8183612977565b5038611675565b61176c6117626020860151612eba565b9451604435612e74565b926113cd565b60a08401516003556113a9565b600180547fffffffffffffffffffffffffffffffff000000000000000000000000000000001691909117905538611397565b604086015187547fffffffffffffffffff00000000000000000000000000000000000000000000001660a09290921b76ffffff0000000000000000000000000000000000000000169190911773ffffffffffffffffffffffffffffffffffffffff919091161786553861131b565b50604086015160643573ffffffffffffffffffffffffffffffffffffffff908116911614156104fa565b60035490610482565b6040517fb53bbacc000000000000000000000000000000000000000000000000000000008152600490fd5b506401000276a360643573ffffffffffffffffffffffffffffffffffffffff1610610412565b845173ffffffffffffffffffffffffffffffffffffffff908116606435909116108015610412575073fffd8963efd1fc6a506488495d951d5263988d2660643573ffffffffffffffffffffffffffffffffffffffff1611610412565b8280fd5b600080fd5b50346101b357806003193601126101b3576040517f000000000000000000000000000000000000000000000000000000000000000073ffffffffffffffffffffffffffffffffffffffff168152602090f35b50346101b357806003193601126101b357602060405162ffffff7f0000000000000000000000000000000000000000000000000000000000000000168152f35b50346101b357806003193601126101b3576040517f000000000000000000000000000000000000000000000000000000000000000073ffffffffffffffffffffffffffffffffffffffff168152602090f35b50346101b3576060367ffffffffffffffffffffffffffffffffffffffffffffffffffffffffffffffffc01126101b357611a24612880565b611a2c612860565b6fffffffffffffffffffffffffffffffff604435818116939192908490036119035760c07f0c396cd989a39f4459b5fa1aed6a9a8dcdbc45908acfd67e028cd568da98982c9185611ab4611a84604098600f0b612e22565b95885190611a91826128dd565b33825260020b9384602083015260020b96878a830152600f0b6060820152612a1b565b969181989115801590611b8e575b611af6575b505087519233845260208401528783015260608201528460808201528360a0820152a182519182526020820152f35b600301908154611b5e611b1d611b10848d16858516612e52565b92848c169060801c612e52565b84546fffffffffffffffffffffffffffffffff1660809190911b7fffffffffffffffffffffffffffffffff0000000000000000000000000000000016178455565b82547fffffffffffffffffffffffffffffffff000000000000000000000000000000001691161790558880611ac7565b50871515611ac2565b50346101b3576020367ffffffffffffffffffffffffffffffffffffffffffffffffffffffffffffffffc01126101b3576004358060010b8091036115e2578160409160209352600683522054604051908152f35b50346101b3576020367ffffffffffffffffffffffffffffffffffffffffffffffffffffffffffffffffc01126101b357604060a091600435815260056020522060018060801b039081815416916001820154916003600282015491015492604051948552602085015260408401528116606083015260801c6080820152f35b50346101b35760a0367ffffffffffffffffffffffffffffffffffffffffffffffffffffffffffffffffc01126101b357611ca261283d565b90611cab612860565b611cb3612870565b611cbb612890565b6fffffffffffffffffffffffffffffffff608435818116959294929186820361190357806003611cec878733613643565b0196875498828a16918284821611600014612020575081945b8a60801c8092116000146120185750935b828116998a611efe575b5050505081169485611d93575b5050506040947fa89c1c8a741251492622c95237828c75d1dbb03ea956f09e3792ff2a14f4fe629260c09287519233845260018060a01b0316602084015260020b8783015260020b60608201528460808201528360a0820152a182519182526020820152f35b81611ded82611dac611e5496956020955460801c612f1b565b81546fffffffffffffffffffffffffffffffff1660809190911b7fffffffffffffffffffffffffffffffff0000000000000000000000000000000016179055565b6040517fa9059cbb00000000000000000000000000000000000000000000000000000000815273ffffffffffffffffffffffffffffffffffffffff8a1660048201526fffffffffffffffffffffffffffffffff909116602482015292839081906044820190565b0381847f000000000000000000000000000000000000000000000000000000000000000073ffffffffffffffffffffffffffffffffffffffff165af1908115611ef257509260c092604097927fa89c1c8a741251492622c95237828c75d1dbb03ea956f09e3792ff2a14f4fe6295611ed4575b5092829750819450611d2d565b611eeb9060203d811161160e576115ff8183612977565b5038611ec7565b604051903d90823e3d90fd5b611f9f93611f0e83602095612f1b565b7fffffffffffffffffffffffffffffffff0000000000000000000000000000000090921691161789556040517fa9059cbb00000000000000000000000000000000000000000000000000000000815273ffffffffffffffffffffffffffffffffffffffff8c1660048201526fffffffffffffffffffffffffffffffff91909116602482015291829081906044820190565b0381877f000000000000000000000000000000000000000000000000000000000000000073ffffffffffffffffffffffffffffffffffffffff165af1801561200d57611fef575b80808392611d20565b6120069060203d811161160e576115ff8183612977565b5038611fe6565b6040513d86823e3d90fd5b905093611d16565b94611d05565b50346101b3576060367ffffffffffffffffffffffffffffffffffffffffffffffffffffffffffffffffc01126101b35760043560249081359160443567ffffffffffffffff81116115d15761207f9036906004016128af565b6040517f70a08231000000000000000000000000000000000000000000000000000000008082523060048301526020949173ffffffffffffffffffffffffffffffffffffffff7f000000000000000000000000000000000000000000000000000000000000000081169087838681855afa9283156122a5578b936123c9575b507f000000000000000000000000000000000000000000000000000000000000000016948a604051978589523060048a0152898988818b5afa9889156123be57829961238f575b508a612325575b8b6122b0575b333b156115e25761217e9260405193849283926372642be560e11b84528d60048501528a840191612999565b038183335af180156122a557612290575b50868491604051928380928782523060048301525afa908115612285578a91612258575b50106122545784916040518094819382523060048301525afa90811561224957869161221c575b5010612218577f1c1db1f1d6a01e51fec24bb54087b65fe5430f692280e70d92f718eb72ae76b792606092604051923384528301526040820152a180f35b8380fd5b90508281813d8311612242575b6122338183612977565b810103126119035751386121da565b503d612229565b6040513d88823e3d90fd5b8780fd5b90508681813d831161227e575b61226f8183612977565b810103126119035751386121b3565b503d612265565b6040513d8c823e3d90fd5b84919a61229d899261290f565b9a915061218f565b6040513d8d823e3d90fd5b6040517fa9059cbb000000000000000000000000000000000000000000000000000000008152336004820152602481018d90528a81604481868d5af1801561231a576122fd575b50612152565b612313908b3d8d1161160e576115ff8183612977565b50386122f7565b6040513d85823e3d90fd5b6040517fa9059cbb000000000000000000000000000000000000000000000000000000008152336004820152602481018c90528a8160448186895af1801561231a57612372575b5061214c565b612388908b3d8d1161160e576115ff8183612977565b503861236c565b9098508981813d83116123b7575b6123a78183612977565b810103126115e257519738612145565b503d61239d565b6040513d84823e3d90fd5b9092508781813d83116123f5575b6123e18183612977565b810103126123f1575191386120fe565b8a80fd5b503d6123d7565b50346101b357806003193601126101b3576020600354604051908152f35b50346101b35760a0367ffffffffffffffffffffffffffffffffffffffffffffffffffffffffffffffffc01126101b35761245261283d565b9061245b612860565b612463612870565b9261246c612890565b9360843567ffffffffffffffff81116115d15761248d9036906004016128af565b93909160020b9060020b95818712801590612752575b8015612746575b61271b576fffffffffffffffffffffffffffffffff169182156126f05761250e604051946124d7866128dd565b73ffffffffffffffffffffffffffffffffffffffff168086526020860189905260408601849052600f85900b606087015294612a1b565b9691509661257887896040516125238161295b565b602d81527f5472616e7366657220746f6b656e2066726f6d206f776e657220746f2074686560208201527f20706f6f6c2020257320202573000000000000000000000000000000000000006040820152613145565b80819289151592836126e0575b89151595866126d0575b333b156115e2578a8c6125ca8493604051968794859463d348799760e01b865260048601526024850152606060448501526064840191612999565b038183335af1908115611ef25750908a92916126c1575b5061262289836040516125f38161293f565b601b81527f546865206f7570757420616d6f756e74206973202025732020257300000000006020820152613145565b826126a7575b505061158f5785908261268d575b505061158f5760a0849386937f7a53080ba414158be7ec69b987b5fb7d07dee101fe85488f0853ae16239d0bde936040998a519333855260208501528a84015260608301526080820152a382519182526020820152f35b61269792506129d8565b61269f612ff4565b108438612636565b6126b192506129d8565b6126b9612f3d565b108738612628565b6126ca9061290f565b386125e1565b94506126da612ff4565b9461258f565b91506126ea612f3d565b91612585565b6040517f10074548000000000000000000000000000000000000000000000000000000008152600490fd5b6040517f064847d0000000000000000000000000000000000000000000000000000000008152600490fd5b50620d89e882136124aa565b507ffffffffffffffffffffffffffffffffffffffffffffffffffffffffffff2761887126124a3565b50346101b357806003193601126101b357546040805173ffffffffffffffffffffffffffffffffffffffff8316815260a09290921c60020b602083015290f35b50346101b357806003193601126101b3576001546040516fffffffffffffffffffffffffffffffff9091168152602090f35b9050346115e257816003193601126115e2577f000000000000000000000000000000000000000000000000000000000000000073ffffffffffffffffffffffffffffffffffffffff168152602090f35b6004359073ffffffffffffffffffffffffffffffffffffffff8216820361190357565b602435908160020b820361190357565b604435908160020b820361190357565b600435908160020b820361190357565b606435906fffffffffffffffffffffffffffffffff8216820361190357565b9181601f840112156119035782359167ffffffffffffffff8311611903576020838186019501011161190357565b6080810190811067ffffffffffffffff8211176128f957604052565b634e487b7160e01b600052604160045260246000fd5b67ffffffffffffffff81116128f957604052565b60c0810190811067ffffffffffffffff8211176128f957604052565b6040810190811067ffffffffffffffff8211176128f957604052565b6060810190811067ffffffffffffffff8211176128f957604052565b90601f8019910116810190811067ffffffffffffffff8211176128f957604052565b908060209392818452848401376000828201840152601f017fffffffffffffffffffffffffffffffffffffffffffffffffffffffffffffffe016010190565b91908201809211610a7757565b604051906129f28261293f565b60005473ffffffffffffffffffffffffffffffffffffffff8116835260a01c60020b6020830152565b90600080612a276129e5565b936002549460035492612a5360018060a01b03845116602085015160020b604086015160020b91613643565b96612a778582602087015160020b602087015160020b6060890151600f0b91613748565b612a9a8683604088015160020b602088015160020b60608a0151600f0b91613748565b90612de3575b612da4575b612ae3604051612ab48161293f565b601281527f506f736974696f6e207570646174652e2e2e000000000000000000000000000060208201526130b1565b602084015160020b90604085015160020b602085015160020b90612b148460020b6000526004602052604060002090565b90612b2c8160020b6000526004602052604060002090565b948312612d835760036002830154920154925b1215612d515790612b6984612b64612b649460036002612b6f99015493015496612e74565b612e74565b97612e74565b906060840151600f0b9160018901612b88815488612e74565b918a549460018060801b039889612ba281891680976132da565b16938d8b612bca600283019582612bc38b612bbe8a548c612e74565b6132da565b169961344f565b167fffffffffffffffffffffffffffffffff00000000000000000000000000000000998a1617905555558015801590612d48575b612d16575b5050602083015160020b602085015160020b90818112600014612c54575050505090612c51929160018060a01b03905116916060612c47604084015160020b61397b565b92015116916134c3565b91565b9091929397959650604085015160020b13600014612ce3575050612cc3612c9b60018060a01b03875116612c8e604086015160020b61397b565b60608601518816916134c3565b9560018060a01b03905116612cb6602085015160020b61397b565b606085015187169161353f565b93612cda6060600154940151600f0b82851661344f565b16911617600155565b612cf6919650612d13949593925061397b565b916060612d09604084015160020b61397b565b920151169161353f565b90565b611dac612d419260038c0192868a612d32865493828516612e52565b1691161780845560801c612e52565b3880612c03565b50811515612bfe565b90600284015480610a77576003906000039401549182610a7757612b6f94612b64612b6992612b649560000396612e74565b600282015480610a775760039060000392015480610a775760000392612b3f565b612dde604085015160020b62ffffff7f00000000000000000000000000000000000000000000000000000000000000001660020b906138be565b612aa5565b612e1d602086015160020b62ffffff7f00000000000000000000000000000000000000000000000000000000000000001660020b906138be565b612aa0565b600f0b7fffffffffffffffffffffffffffffffff800000000000000000000000000000008114610a775760000390565b6fffffffffffffffffffffffffffffffff9182169082160191908211610a7757565b91908203918211610a7757565b600291820b910b03907fffffffffffffffffffffffffffffffffffffffffffffffffffffffffff8000008212627fffff831317610a7757565b7f80000000000000000000000000000000000000000000000000000000000000008114610a775760000390565b90816020910312611903575180151581036119035790565b612d139492606092825260208201528160408201520191612999565b6fffffffffffffffffffffffffffffffff9182169082160391908211610a7757565b6040517f70a082310000000000000000000000000000000000000000000000000000000081523060048201526020816024817f000000000000000000000000000000000000000000000000000000000000000073ffffffffffffffffffffffffffffffffffffffff165afa908115612fe857600091612fba575090565b906020823d8211612fe0575b81612fd360209383612977565b810103126101b357505190565b3d9150612fc6565b6040513d6000823e3d90fd5b6040517f70a082310000000000000000000000000000000000000000000000000000000081523060048201526020816024817f000000000000000000000000000000000000000000000000000000000000000073ffffffffffffffffffffffffffffffffffffffff165afa908115612fe857600091612fba575090565b919082519283825260005b84811061309d575050826000602080949584010152601f8019910116010190565b60208183018101518483018201520161307c565b600080916040516130ed816130df602082019463104c13eb60e21b8652602060248401526044830190613071565b03601f198101835282612977565b51906a636f6e736f6c652e6c6f675afa50565b6000919082916130ed60405180926131316020830195632d839cb360e21b8752604060248501526064840190613071565b90604483015203601f198101835282612977565b600092916130ed8493604051928391613177602084019663ca47c4eb60e01b8852606060248601526084850190613071565b916044840152606483015203601f198101835282612977565b9091907fffffffffffffffffffffffffffffffffffffffffffffffffffffffffffffffff8382098382029182808310920394828603926000961461321757620f42409183831115613213577fde8f6cefed634549b62c77574f722e1ac57e23f24d8fd5cb790fb65668c261399596500990828211900360fa1b910360061c170290565b8680fd5b505050620f42409192500490565b90700100000000000000000000000000000000907fffffffffffffffffffffffffffffffffffffffffffffffffffffffffffffffff828409928060801b928380861095039480860395146132cc57848311156119035782910981806000031680920460028082600302188083028203028083028203028083028203028083028203028083028203028092029003029360018380600003040190848311900302920304170290565b505080925015611903570490565b7fffffffffffffffffffffffffffffffffffffffffffffffffffffffffffffffff82820990828102928380841093039183830393600093146133455770010000000000000000000000000000000092848411156101b357500990828211900360801b910360801c1790565b505090505060801c90565b7fffffffffffffffffffffffffffffffffffffffffffffffffffffffffffffffff82820990828102928380841093039280840393146133b3576c010000000000000000000000009183831115611903570990828211900360a01b910360601c1790565b50505060601c90565b917fffffffffffffffffffffffffffffffffffffffffffffffffffffffffffffffff82840992828102928380861095039480860395146132cc57848311156119035782910981806000031680920460028082600302188083028203028083028203028083028203028083028203028083028203028092029003029360018380600003040190848311900302920304170290565b600082600f0b1260001461348157613469612d1392612e22565b6fffffffffffffffffffffffffffffffff1690612f1b565b612d13916fffffffffffffffffffffffffffffffff1690612e52565b73ffffffffffffffffffffffffffffffffffffffff9182169082160391908211610a7757565b73ffffffffffffffffffffffffffffffffffffffff92909183811684841611613539575b83831693841561190357806134ff61352d958461349d565b919092169291169060601b7bffffffffffffffffffffffffffffffff000000000000000000000000166135db565b90808206151591040190565b916134e7565b73ffffffffffffffffffffffffffffffffffffffff9161356a9190808416848316116135d55761349d565b16906fffffffffffffffffffffffffffffffff166135888282613350565b916c0100000000000000000000000091096135a05790565b7fffffffffffffffffffffffffffffffffffffffffffffffffffffffffffffffff80821015611903578114610a775760010190565b9061349d565b9291906135e98282866133bc565b93821561362d57096135f757565b907fffffffffffffffffffffffffffffffffffffffffffffffffffffffffffffffff80821015611903578114610a775760010190565b634e487b7160e01b600052601260045260246000fd5b916040519160208301936bffffffffffffffffffffffff199060601b16845260e81b603483015260e81b6037820152601a815261367f8161293f565b5190206000526005602052604060002090565b811561362d570490565b6000939273ffffffffffffffffffffffffffffffffffffffff9260601b7bffffffffffffffffffffffffffffffff00000000000000000000000016918316808202821583820483141715610a7757816136f58483613692565b14613701575050505050565b83613711929394959697506129d8565b8381101561373957509061372861372d9284613692565b6129d8565b80820615159104011690565b9150613744926135db565b1690565b90600191959492939560020b958660005260046020526040600020918254848060801b0395868260081c169361377e898661344f565b94159a8b8987161514159b613801575b50505050508154906101008460881b039060081b16906101008460881b031916178155019182549182600f0b91600f0b9160008382019384129112908015821691151617610a77577fffffffffffffffffffffffffffffffff000000000000000000000000000000009092169116179055565b879460020b121561383e575b50507fffffffffffffffffffffffffffffffffffffffffffffffffffffffffffffff0016178255388080808061378e565b60028601556003850155388061380d565b9060020b90811561362d5760020b0790565b60020b9060020b90811561362d577fffffffffffffffffffffffffffffffffffffffffffffffffffffffffff80000081147fffffffffffffffffffffffffffffffffffffffffffffffffffffffffffffffff831416610a77570590565b6138c8828261384f565b60020b611903576138dc91610dca91613861565b9060010b6000526006602052600160ff604060002092161b8154189055565b60020b60010190627fffff82137fffffffffffffffffffffffffffffffffffffffffffffffffffffffffff800000831217610a7757565b9060020b9060020b0190627fffff198212627fffff831317610a7757565b9060ff8091169116039060ff8211610a7757565b9060020b9060020b02908160020b918203610a7757565b60020b6000811215613ee75761399081612eba565b620d89e88111613e88576001811615613e71576ffffcb933bd6fad37aa2d162d1a5940015b70ffffffffffffffffffffffffffffffffff169160028216613e45575b600491828116613e19575b60088116613ded575b60108116613dc1575b60208116613d95575b60408116613d69575b608090818116613d3e575b6101008116613d13575b6102008116613ce8575b6104008116613cbd575b6108008116613c92575b6110008116613c67575b6120008116613c3c575b6140008116613c11575b6180008116613be6575b620100008116613bbb575b620200008116613b91575b620400008116613b53575b6208000016613b14575b50600012613ad0575b5063ffffffff8116613ac5576137446000915b73ffffffffffffffffffffffffffffffffffffffff9260ff169060201c6129d8565b613744600191613aa3565b8115613aff57507fffffffffffffffffffffffffffffffffffffffffffffffffffffffffffffffff0438613a90565b601290634e487b7160e01b6000525260246000fd5b6b048a170391f7dc42444e8fa293919391828102928184041490151715613b3e571c916000613a87565b601183634e487b7160e01b6000525260246000fd5b936d2216e584f5fa1ea926041bedfe9890818102918183041490151715613b7c57811c93613a7d565b601184634e487b7160e01b6000525260246000fd5b936e5d6af8dedb81196699c329225ee60490818102918183041490151715613b7c57811c93613a72565b936f09aa508b5b7a84e1c677de54f3e99bc990818102918183041490151715613b7c57811c93613a67565b936f31be135f97d08fd981231505542fcfa690818102918183041490151715613b7c57811c93613a5c565b936f70d869a156d2a1b890bb3df62baf32f790818102918183041490151715613b7c57811c93613a52565b936fa9f746462d870fdf8a65dc1f90e061e590818102918183041490151715613b7c57811c93613a48565b936fd097f3bdfd2022b8845ad8f792aa582590818102918183041490151715613b7c57811c93613a3e565b936fe7159475a2c29b7443b29c7fa6e889d990818102918183041490151715613b7c57811c93613a34565b936ff3392b0822b70005940c7a398e4b70f390818102918183041490151715613b7c57811c93613a2a565b936ff987a7253ac413176f2b074cf7815e5490818102918183041490151715613b7c57811c93613a20565b936ffcbe86c7900a88aedcffc83b479aa3a490818102918183041490151715613b7c57811c93613a16565b936ffe5dee046a99a2a811c461f1969c305390818102918183041490151715613b7c57811c93613a0c565b926fff2ea16466c96a3843ec78b326b5286190818102918183041490151715613b3e5760801c92613a01565b926fff973b41fa98c081472e6896dfb254c090818102918183041490151715613b3e5760801c926139f8565b926fffcb9843d60f6159c9db58835c92664490818102918183041490151715613b3e5760801c926139ef565b926fffe5caca7e10e4e61c3624eaa0941cd090818102918183041490151715613b3e5760801c926139e6565b926ffff2e50f5f656932ef12357cf3c7fdcc90818102918183041490151715613b3e5760801c926139dd565b916ffff97272373d413259a46990580e213a90818102918183041490151715610a775760801c916139d2565b7001000000000000000000000000000000006139b5565b6040517f08c379a000000000000000000000000000000000000000000000000000000000815260206004820152600160248201527f54000000000000000000000000000000000000000000000000000000000000006044820152606490fd5b80613990565b73ffffffffffffffffffffffffffffffffffffffff818116916401000276a38310158061427d575b1561421e57640100000000600160c01b039060201b16908160018060801b03831160071b9280841c9167ffffffffffffffff831160061b92831c9463ffffffff861160051b95861c9360049661ffff8611881b95861c60ff9687821160031b91821c92600f841160021b93841c94600160038711811b96871c11961717171717171791608083101560001461420a57507fffffffffffffffffffffffffffffffffffffffffffffffffffffffffffffff8182018281116141f5571c5b607f1982019182136001166141e0578002607f928392828493841c81841c1c800280851c81851c1c800280861c81861c1c800280871c81871c1c80029081881c82881c1c80029283891c84891c1c800294858a1c868a1c1c800296878b1c888b1c1c800298898c1c8a8c1c1c80029a8b8d1c8c821c1c8002809d1c8d821c1c8002809e81901c90821c1c80029e8f80911c911c1c800260cd1c6604000000000000169d60cc1c6608000000000000169c60cb1c6610000000000000169b60ca1c6620000000000000169a60c91c6640000000000000169960c81c66800000000000001698600160381b9060c71c1697600160391b9060c61c16966001603a1b9060c51c16956001603b1b9060c41c16946001603c1b9060c31c16936001603d1b9060c21c16926001603e1b9060c11c16916001603f1b9060c01c169060401b1717171717171717171717171717693627a301d71055774c8590818102918183051490151715613b3e577ffffffffffffffffffffffffffffffffffd709b7e5480fba5a50fed5e62ffc5568101600182821316613b7c5760801d60020b926fdb2df09e81959a81455e260799a0632f91600083820193841291129080158216911516176141cb575060801d60020b926000918385036141b157505050905090565b6141ba8561397b565b161190506141c6575090565b905090565b601190634e487b7160e01b6000525260246000fd5b601185634e487b7160e01b6000525260246000fd5b601186634e487b7160e01b6000525260246000fd5b905081607f03607f81116141f5571b613fd1565b6040517f08c379a000000000000000000000000000000000000000000000000000000000815260206004820152600160248201527f52000000000000000000000000000000000000000000000000000000000000006044820152606490fd5b5073fffd8963efd1fc6a506488495d951d5263988d268310613f1556fea2646970667358221220b4e11c6036315835609c2df5f14bdd5b951f8930edc571d82d94fcb3b0c8435564736f6c63430008130033a2646970667358221220f4db94927fed7eea185c9b833ac489dedad9022146399c35d776bea54b3a895264736f6c63430008130033",
  "linkReferences": {},
  "deployedLinkReferences": {}
}